:020000040800F2
:10000000D034012055020008111800082D120008F4
:100010000D180008910E00084B2700080000000092
:100020000000000000000000000000009D0100082A
:10003000950E000800000000F1010008591F00089B
:100040006F0200086F0200086F0200086F020008CC
:100050006F0200086F0200086F0200086F020008BC
:100060006F0200086F0200086F0200086F020008AC
:100070006F0200086F0200086F0200086F0200089C
:100080006F0200086F0200086F0200086F0200088C
:100090006F0200086F0200086F0200086F0200087C
:1000A0006F0200086F0200086F0200086F0200086C
:1000B0006F0200086F0200086F0200086F0200085C
:1000C0006F0200086F0200086F0200086F0200084C
:1000D0006F020008012500086F0200086F02000887
:1000E0006F0200086F0200086F0200086F0200082C
:1000F0006F0200086F0200086F0200086F0200081C
:100100006F0200086F0200088D2100086F020008CE
:100110006F0200086F0200086F0200086F020008FB
:100120006F0200086F0200086F0200086F020008EB
:100130006F0200086F0200086F0200086F020008DB
:100140006F0200086F0200086F0200086F020008CB
:100150006F0200086F0200086F0200086F020008BB
:100160006F0200086F0200086F0200086F020008AB
:100170006F0200086F0200086F0200086F0200089B
:100180006F0200086F020008DFF80CD000F0AAFB35
:1001900000480047A94C0008D03401202A4B1968B8
:1001A0000868B0E8F04F80F30988BFF36F8F4FF015
:1001B000000080F3118870470000000006480068C6
:1001C000006880F3088862B661B6BFF34F8FBFF353
:1001D0006F8F00DF00BF00BF08ED00E0DFF80C000C
:1001E000016841F470010160704700BF88ED00E0D4
:1001F000EFF30980BFF36F8F134B1A681EF0100FD7
:1002000008BF20ED108A20E9F04F106008B44FF0CD
:10021000500080F31188BFF34F8FBFF36F8F07F04B
:1002200069F84FF0000080F3118808BC196808686D
:10023000B0E8F04F1EF0100F08BFB0EC108A80F34A
:100240000988BFF36F8F704724000020EFF305800B
:10025000704700000648804706480047FEE7FEE773
:10026000FEE7FEE7FEE7FEE7FEE7FEE7FEE7FEE766
:100270008D1F0008890100082DE9F0410024061BAC
:10028000254671F1000605DA01240027D0EB0700AE
:1002900067EB0101161E73F1000605DA0027D2EBA9
:1002A0000702012567EB030300F025FA86460E4698
:1002B00017469C46AC4204D00025D0EB050E65EBFA
:1002C000010624B10020D2EB000760EB030C70465E
:1002D00031463A466346BDE8F08140EA01039B0798
:1002E00003D009E008C9121F08C0042AFAD203E0AB
:1002F00011F8013B00F8013B521EF9D27047D2B20F
:1003000001E000F8012B491EFBD270470022F6E7FE
:1003100010B513460A4604461946FFF7F0FF20467B
:1003200010BD30B504460020034600E05B1C93423C
:1003300003D2E05CCD5C401BF8D030BD2DE9FE4F10
:10034000804681EA0300C00F0C46009021F0004176
:1003500023F00045B8EB0200A94105D240462146F2
:1003600090461C460B46024623F00040104347D0FF
:10037000270DC7F30A00C3F30A510290401A0190F7
:1003800040286BDAC3F3130040F4801B00989246B8
:1003900020B10023D2EB030A63EB0B0B0198594603
:1003A000C0F14002504600F0D7F906460D465046CF
:1003B0005946019A00F0EFF910EB08006141002462
:1003C00087EA115284EAE7731A4340D0009A62B375
:1003D000019A012A4FEA075215DC001B61EB02016A
:1003E0004FF0004202EA0752CDE90042001C41F5FD
:1003F000801132462B4600F026FA03B0BDE8F08F9C
:1004000040462146F9E7001B61EB0201001C41F563
:10041000801300185B412018A2F5001747EB030179
:1004200040EAD570B6196D4111E06D084FEA360605
:1004300045EAC0754FEA0752001B61EB0201001C40
:1004400041F5801149084FEA300000195141324608
:100450002B4603B0BDE8F04F00F0E6B9009801224A
:1004600040000023D0EB020263EBE07300982146CA
:100470004FEAE074B8EB000061EB0401E9E783F0B8
:1004800000435BE781F0004158E72DE9FE4F81EA28
:10049000030404F0004421F0004100944FF0000BED
:1004A00023F0004350EA01045ED052EA03045BD01B
:1004B000C3F30A54C1F30A552C44A4F2F334019453
:1004C000A0FB0254C1F3130141F48011C3F31303E1
:1004D00043F4801301FB024400FB034E840A970A95
:1004E00044EA815447EA8357A4FB076802958D0AC2
:1004F00005FB07854FEA932C04FB0C542705029D4E
:100500004FEA065847EA1637B5EB08056EEB070CBD
:10051000870E920E47EA811742EA8312A7FB020177
:10052000B6EB0B0164EB00042B0D43EA0C335E18B1
:1005300044EB1C50DA465146E7FB0201C5F31304B5
:100540004FEA0B3343EA14534FEA0432019C43EA67
:100550000603A4F10C040294009CCDE900B400F061
:1005600072F903B0BDE8F08F00200146F9E72DE9EC
:10057000F04D81EA030404F0004B21F000451446DD
:100580004FF0000A23F0004150EA050220D054EA5F
:1005900001021DD0C5F30A570246C5F31303C1F388
:1005A0001300C1F30A5640F4801543F48013A7EBFF
:1005B0000608101BD64608F2FD3873EB050002D37F
:1005C00008F1010801E092185B41B8F1000F03DA6D
:1005D00000200146BDE8F08D00204FF48011064652
:1005E00084460EE0171B73EB050705D3121B63EB64
:1005F000050306434CEA010C49084FEA3000921803
:100600005B4150EA0107EDD152EA030012D082EAC1
:10061000040083EA0501084305D0101BAB4106D254
:100620000122002306E000224FF0004302E06FF0B9
:10063000010253101AEB06004CEB085110EB0A00B4
:1006400041EB0B01BDE8F04D00F0EEB80EB540F205
:10065000334102910021CDE900110A460B4600F01A
:10066000F2F803B000BDC1F30A5210B5C1F3130193
:1006700040F2FF3341F480119A4201DA002010BDAC
:1006800040F233439A42A2F2334203DC524200F07A
:1006900072F810BD904010BD00F0004230F00040F4
:1006A0000AD0C10D01F56071C0F3160042EA015194
:1006B000C20840071143704700200146704701F00F
:1006C000004330B421F0004150EA010206D00A0D87
:1006D000A2F56072C1F31301002A02DC30BC0020D5
:1006E0007047440F44EAC104C100E01830BC00EB7D
:1006F000C25000F062B82DE9F05F05460020924636
:100700009B4688460646814640241BE028464146D3
:100710004746224600F02FF853465A46C01A9141E8
:1007200010D311461846224600F016F82D1A67EB32
:1007300001084F4622460120002100F00DF817EB7A
:1007400000094E41201EA4F10104DFDC4846314679
:100750002A464346BDE8F09F202A04DB203A00FAEF
:1007600002F1002070479140C2F1200320FA03F308
:10077000194390407047202A04DB203A21FA02F006
:100780000021704721FA02F3D040C2F120029140CB
:10079000084319467047202A06DBCB17203A41FA56
:1007A00002F043EAE07306E041FA02F3D040C2F1FE
:1007B000200291400843194670470029A8BF70479E
:1007C000401C490008BF20F00100704710B4B0FA87
:1007D00080FC00FA0CF050EA010404BF10BC704722
:1007E00049B1CCF1200421FA04F411FA0CF118BF3C
:1007F000012121430843A3EB0C01CB1D4FEA00610B
:100800004FEA102042BF002010BC704700EBC350DD
:1008100010440029A4BF10BC7047401C490008BF09
:1008200020F0010010BC704710B5141E73F10004D5
:1008300008DA401C41F1000192185B411A4301D1D2
:1008400020F0010010BD2DE9F04D92469B4611B1FC
:10085000B1FA81F202E0B0FA80F220329046FFF75E
:100860007BFF04460F4640EA0A0041EA0B0153466B
:100870005A46084313D0114653EA010019D0C8F173
:1008800040025046FFF777FF05460E465046594650
:100890004246FFF761FF084305D0012004E02046EF
:1008A0003946BDE8F08D0020054346EAE0762C434A
:1008B00037430A986305E40AA0EB08000022FD0A0A
:1008C00044EA47540A3002D500200146E9E7010511
:1008D00010196941DDE9084500196941BDE8F04D8D
:1008E000A2E70000064C074D06E0E06840F0010377
:1008F00094E8070098471034AC42F6D3FFF748FC61
:1009000068940008889400082DE9F04D00231A46E9
:100910001B1A8A4103DB00200146BDE8F08DC1F3BC
:100920000A52C1F3130141F480154FF0000BD107B7
:1009300002D100186D41521E0027044640F2FF11FB
:10094000384601EB620A3E468046024600204FF4DC
:100950008011FFF710FFC2197141BB1846EB01006F
:10096000B4EB030C75EB000C04D3E41A65EB000543
:1009700017460E46241908F101006D4180463428BF
:10098000E3DDF91946EB0600091BA84103D24FF03D
:10099000FF32134601E0002213461BEB070046EB33
:1009A0000A51BDE8F04DFFF73FBF00220A12D343C2
:1009B0000360704721B1826842F00102826003E067
:1009C000826822F001028260704700000021084A1C
:1009D0001168084A1140D0E900231A4383681A437A
:1009E000C3681A431143044AC2F804137047000055
:1009F00004230140E030FCFF0020014010B501213C
:100A0000080201F00DF900214FF4807001F008F99F
:100A100010BD00001CB50121084601F0D1F81420DA
:100A2000009003208DF8040000208DF8070069462F
:100A3000014800F097FA1CBD000002400146C86C56
:100A400080B270470246002013680B400BB10120B2
:100A500000E000207047000030B50246002000236F
:100A60005068104C20400D790C6844EA052420435E
:100A7000506090680C4C2040D1E903542C438D68A1
:100A80002C434D7944EA450420439060D06A20F419
:100A900070000C7D641EE4B2234340EA0350D06230
:100AA00030BD0000FFFEFFFCFDF7FFC000B58BB0BE
:100AB0000121080201F0A4F8FFF7A0FF0020019037
:100AC000049003904FF48030029001A8FFF77EFF5E
:100AD000002005908DF818008DF8190007900990F6
:100AE00001208DF8280005A90448FFF7B5FF012172
:100AF0000248FFF75FFF0BB000BD0000002001407F
:100B0000F0B504460D4600200021092D11DDE068F6
:100B1000A5F10A0606EB4607072606FA07F1884301
:100B2000A5F10A0606EB460603FA06F10843E06063
:100B30000CE0206905EB4507072606FA07F1884314
:100B400005EB450603FA06F108432061072A0FDA90
:100B5000606B561E06EB86071F2606FA07F18843D0
:100B6000561E06EB860605FA06F10843606322E08E
:100B70000D2A0FDA206BD61F06EB86071F2606FA12
:100B800007F18843D61F06EB860605FA06F10843EF
:100B9000206310E0E06AA2F10D0606EB86071F262F
:100BA00006FA07F18843A2F10D0606EB860605FA60
:100BB00006F10843E062F0BD816841F08041816048
:100BC000704700002DED088B82B09FED230A23486B
:100BD00080ED030A3FE0052101A806F0FBF900F0D3
:100BE00009FB0446FFF732FD41EC1B0B9FED1C0B8C
:100BF00053EC102BFFF7BBFC41EC1A0B9FED1A0BCB
:100C000053EC102BFFF741FC41EC190B9FED180B37
:100C100053EC102BFFF733FC41EC180BFFF74FFDA3
:100C20000E4948606FF04F000090084690ED010AB1
:100C3000BDEEC00A10EE100A02B2084690ED030A9B
:100C4000BDEEC00A10EE100A01B250230A4800F0AF
:100C5000CFFE02494881BEE70000EA425830012039
:100C6000000000000000B0400000000000E0704004
:100C70000000000000003E40943001202DED028B6A
:100C80008AB001202049087000F090FC00BF04F0F9
:100C90006FF90028FBD135E0022006F06DF91A4803
:100CA000007801282ED107AA08A909A804F054F851
:100CB00040BB04AA05A906A800F028FC01AA02A9C5
:100CC00003A800F04BFC9DED080ADFED100A30EEA2
:100CD000200AB0EE408AB5EEC08AF1EE10FA03D2D7
:100CE0009FED0B0AB0EE408A9FED0A0AB4EEC08A6F
:100CF000F1EE10FA03DD9FED070AB0EE408A0648D8
:100D000080ED038AC8E70000980000200000EB4255
:100D10000000000000006B43583001201CB506F0B5
:100D200011F81D4804210023CA01CDE900101BA1C0
:100D30001E4806F0A3FE1E4804210023CA01CDE987
:100D400000101CA11E4806F099FE1E480321002336
:100D50004FF40072CDE900101BA11E4806F08EFE74
:100D60001D48022100230A02CDE900101BA11E48E4
:100D700006F084FE1D48032100234FF40072CDE9E4
:100D800000101BA11E4806F079FE1E48006806F000
:100D90008BF906F001F81CBDA400002053706565B6
:100DA000645049445F5461736B000000B91E000831
:100DB000A8000020416E675049445F5461736B0086
:100DC000C50B0008A0000020416E675F5461736B83
:100DD000000000007D0C0008AC000020497764672B
:100DE0005F5461736B000000F1140008B000002034
:100DF000557361727474785F5461736B0000000006
:100E0000D92700089C00002010B54FF4407000F076
:100E10003DFD03F02FFF00F0EDF805F01BFF01F0A2
:100E2000E9F800F0C7FE01F054FB02F0A5FC00F069
:100E300099FE40F27121042000F022FB4FF42F7044
:100E40000649088206A001F0FBFC00F029FD0CA277
:100E50000021084600F094FD10BD0000583001202C
:100E6000546869732069732053544D3332463420DB
:100E7000616E64204672656552544F530D0A00003E
:100E8000546869732069732052544F530000000066
:100E900000BFFEE77047002107E04AF6FF7100BF80
:100EA0000A1EA1F1010399B2FAD1021EA0F10103B9
:100EB00098B2F2D17047000000B589B00121084610
:100EC00000F08EFE0121084600F07AFE012200218A
:100ED000234800F03FF901221146214800F03AF979
:100EE0000320049002208DF8140003208DF81500D3
:100EF00000208DF816008DF8170004A9184800F09E
:100F000031F806A801F0DCFA0020ADF8180040F234
:100F1000CF7007900020ADF82000ADF81A0006A9A8
:100F20004FF0804001F08AFA00231A4603214FF067
:100F3000804001F069F901A801F0CFF90820ADF86F
:100F40000C0001A9C00601F091F900214FF080408A
:100F500001F045FA0121880701F04AF909B000BD06
:100F600000000240F0B50A4600210023002400BF23
:100F70003DE0012505FA01F3156805EA03049C42EA
:100F800034D105684F000326BE40B543056015798E
:100F90004E00B5400668354305601579012D02D035
:100FA0001579022D16D185684F000326BE40B54342
:100FB000856055794E00B540866835438560456843
:100FC00001268E40B5434560456896798E40B6B29D
:100FD00035434560C5684F000326BE40B543C56034
:100FE000D5794E00B540C6683543C560491C102907
:100FF000BFD3F0BD1CB50121102000F0E1FD4FF47E
:10100000F060009002208DF8050000208DF80700A8
:1010100001208DF8040000208DF8060069464C4838
:10102000FFF7A0FF4FF4F061494800F0C1F84FF41A
:101030000071474800F0BCF81420FFF72CFF4FF474
:101040000071434800F0B2F81420FFF724FF4FF47A
:1010500000713F4800F0ACF80021AE2000F0ABFC7E
:101060000021084600F0A7FC0021102000F0A3FC9E
:101070000021402000F09FFC0021812000F09BFC1B
:101080000021CF2000F097FC0021A12000F093FC6C
:101090000021C82000F08FFC0021A62000F08BFC6E
:1010A0000021A82000F087FC00213F2000F083FCF5
:1010B0000021D32000F07FFC0021084600F07BFCDB
:1010C0000021D52000F077FC0021802000F073FC87
:1010D0000021D92000F06FFC0021F12000F06BFC12
:1010E0000021DA2000F067FC0021122000F063FCF0
:1010F0000021DB2000F05FFC0021402000F05BFCC1
:101100000021202000F057FC0021022000F053FCB9
:1011100000218D2000F04FFC0021142000F04BFC3A
:101120000021A42000F047FC0021A62000F043FC91
:101130000021AF2000F03FFC0021AF2000F03BFC7D
:1011400000F0AEFB0021084600F0CAFB1CBD000009
:1011500000100240F0B5002300244D07ED0E02FA06
:1011600005F3CE1000F1200555F826504E07F70E76
:101170000F26BE40B543CF1000F1200646F8275099
:10118000CE1000F1200555F8265045EA0304CE1094
:1011900000F1200545F82640F0BD02460020136905
:1011A0000B400BB1012000E00020704741837047E5
:1011B0000183704742694A404261704710B5042379
:1011C000012219460A48FFF79BFC0948FFF7F4FC87
:1011D00000BF02210648FFF735FC0028F9D00221A4
:1011E0000348FFF7E2FB0248FFF728FC10BD0000B0
:1011F0000020014010B50223012219460A48FFF7DA
:101200007FFC0948FFF7D8FC00BF02210648FFF722
:1012100019FC0028F9D002210348FFF7C6FB024859
:10122000FFF70CFC10BD00000020014000BFFEE7EE
:1012300010B54FF400610C48FFF7B8FF00F0ACFDAB
:101240004FF480510848FFF7B1FF03F056FC4FF40C
:1012500000610548FFF7ACFF03F04FFC4FF400615D
:101260000148FFF7A3FF10BD001002401CB501218B
:10127000102000F0A5FC4FF4C050009001208DF824
:1012800004008DF8060002208DF8050001208DF87D
:10129000070069460648FFF765FE4FF40061044801
:1012A000FFF786FF4FF480510148FFF781FF1CBD17
:1012B0000010024010B54FF400610C48FFF776FFB4
:1012C00000F06AFD4FF480510848FFF771FF03F00A
:1012D00014FC4FF400610548FFF76AFF03F00DFCB2
:1012E0004FF400610148FFF761FF10BD001002409C
:1012F00070B50546002400F037FD002619E04FF4D4
:1013000000611148FFF752FF03F0F7FB4FF4006153
:101310000D48FFF74DFF6006040E4FF480510A4858
:10132000FFF73BFF08B1601CC4B203F0E6FB701C82
:10133000C6B2082EE3DB15B9FFF7BCFF01E0FFF7EB
:1013400077FF204670BD00000010024070B50446D3
:1013500000F022FD4FF400611448FFF727FF00253D
:1013600020E0E00928B14FF480511048FFF720FF3A
:1013700004E04FF480510D48FFF718FF6006040E9B
:1013800003F0BBFB4FF400610848FFF711FF03F0C7
:10139000B4FB4FF400610548FFF708FF03F0ADFB15
:1013A000681CC5B2082DDCDB70BD000000100240D7
:1013B00010B500F0F1FC4FF480510B48FFF7F8FE38
:1013C0004FF400610848FFF7F3FE03F096FB4FF47B
:1013D00080510548FFF7EAFE03F08FFB4FF40061F0
:1013E0000148FFF7E3FE10BD0010024010B500F009
:1013F000D3FC4FF400610B48FFF7D8FE4FF4805147
:101400000848FFF7D3FE03F078FB4FF4006105486E
:10141000FFF7CEFE4FF480510248FFF7C9FE03F0FC
:101420006CFB10BD0010024010B5002400F09CFCC5
:101430004FF480511148FFF7BBFE03F05EFB4FF401
:1014400000610E48FFF7B4FE03F057FB07E0601C95
:10145000C4B2FA2C03DDFFF7C9FF012010BD4FF421
:1014600080510648FFF799FE0028F0D14FF4006143
:101470000248FFF79BFE0020F0E70000001002404A
:1014800070B505460C4645F2555000F02BF828463D
:1014900000F01CF8204600F01FF800F00FF800F0F4
:1014A00001F870BD4CF6CC4001490860704700005F
:1014B0000030004010B500F001F810BD4AF6AA2037
:1014C0000149086070470000003000400149486051
:1014D00070470000003000400149886070470000FC
:1014E00000300040014908607047000000300040B3
:1014F00009E04FF4FA7005F03FFD40210248FFF784
:1015000059FEFFF7D7FFF4E7000002402DE9FC4148
:1015100004460D4616466B4606223B21682000F025
:101520009FF80746BFB99DF801009DF8001040EAFA
:10153000012000B220809DF803009DF8021040EACF
:10154000012000B228809DF805009DF8041040EAB3
:10155000012000B230803846BDE8FC812DE9FC4115
:1015600004460D4616466B4606224321682000F0CD
:1015700077F80746BFB99DF801009DF8001040EAD2
:10158000012000B220809DF803009DF8021040EA7F
:10159000012000B228809DF805009DF8041040EA63
:1015A000012000B230803846BDE8FC8110B5FFF75D
:1015B0005DFE80216B2000F0D7F8642005F0DCFC94
:1015C00000216B2000F0D0F8032000F08BF8002001
:1015D00000F080F8322000F0AAF80021382000F056
:1015E000C3F800216A2000F0BFF80021232000F09A
:1015F000BBF88021372000F0B7F8752000F013F811
:101600000446682C0BD101216B2000F0ADF80021BD
:101610006C2000F0A9F8322000F089F801E00120E8
:1016200010BD0020FCE770B50446FFF7C1FED020D6
:10163000FFF78CFEFFF7F8FE2046FFF787FEFFF767
:10164000F3FEFFF7B5FED120FFF780FEFFF7ECFEBB
:101650000020FFF74DFE0546FFF7C8FE284670BD87
:101660002DE9F04106460F4614461D46FFF7A0FE41
:10167000002141EA4601C8B2FFF768FEFFF7D4FE39
:1016800020B1FFF7B3FE0120BDE8F0813846FFF737
:101690005DFEFFF7C9FEFFF78BFE012101EB46015E
:1016A000C8B2FFF753FEFFF7BFFE0DE0012C04D1D7
:1016B0000020FFF71DFE287003E00120FFF718FE51
:1016C0002870601EC4B26D1C002CEFD1FFF78EFE97
:1016D0000020D9E710B50446E006010E1C2000F0FA
:1016E00043F810BD10B50446E006010E1B2000F0C3
:1016F0003BF810BD70B504460025BC2C01DB01256C
:1017000010E0622C01DB02250CE02A2C01DB032512
:1017100008E0142C01DB042504E00A2C01DB05257C
:1017200000E0062529461A2000F01EF870BD70B5AD
:101730000446B4F57A7F01DD4FF47A74042C00DAA4
:1017400004244FF47A7090FBF4F0401EC5B2294691
:10175000192000F009F80546264604EBD671C1F3BE
:101760004F00FFF7C7FF70BD70B505460C46FFF789
:101770001FFED020FFF7EAFDFFF756FE18B1FFF776
:1017800035FE012070BD2846FFF7E0FDFFF74CFE57
:101790002046FFF7DBFDFFF747FE18B1FFF726FEF7
:1017A0000120EFE7FFF722FE0020EBE72DE9F041F3
:1017B00005460E4617469846FFF7FAFD002141EA16
:1017C0004501C8B2FFF7C2FDFFF72EFE20B1FFF7BB
:1017D0000DFE0120BDE8F0813046FFF7B7FDFFF7B1
:1017E00023FE00240CE018F80400FFF7AFFDFFF71C
:1017F0001BFE18B1FFF7FAFD0120EBE7601CC4B235
:10180000BC42F0DBFFF7F2FD0020E3E700BFFEE79C
:101810007047000070B5002100230F22C4781CB36C
:10182000174C246804F4E064C4F5E064C4F30721B1
:10183000C1F10404E3B20A4144789C40E1B28478E7
:10184000144021430C07210E0E4C05786155047895
:1018500004F01F050124AC4005786D11AD0005F1C1
:10186000E025C5F8004109E0047804F01F050124D3
:10187000AC40054D0678761145F8264070BD000055
:101880000CED00E000E400E080E100E002490143EB
:10189000024A1160704700000000FA050CED00E0FC
:1018A00070B5002419E004F1B001C8B2002100F0C5
:1018B00082F80021084600F07EF80021102000F098
:1018C0007AF8002505E00121002000F074F8681C7A
:1018D000C5B2802DF7DB601CC4B2082CE3DB70BD01
:1018E00070B504460D4605F1B001C8B2002100F004
:1018F00062F8102141EA1410002100F05CF804F0B5
:101900000F0141F00100002100F055F870BD00000A
:101910002DE9F04107460E46904600250024A8F127
:101920002000C5B27F2F02DD0027B01CC6B23146B1
:101930003846FFF7D5FF002408E004EB05110F4AF5
:10194000505C012100F037F8601CC4B2082CF4DBB5
:10195000701CC1B23846FFF7C3FF002409E004EB56
:1019600005110831054A505C012100F024F8601C83
:10197000C4B2082CF3DBBDE8F0810000F080000861
:101980002DE9F04104460F46154600260EE0AA5DFB
:1019900039462046FFF7BCFF04F10800C4B2782C9A
:1019A00002DD0024B81CC7B2701CC6B2A85D0028B6
:1019B000EDD1BDE8F08170B505460C4603F0D4F8D2
:1019C000782003F0A1F803F001F91CB1402003F0E6
:1019D0009BF802E0002003F097F803F0F7F82846A0
:1019E00003F092F803F0F2F803F0DAF870BD0000AB
:1019F00030B504469DED030A00EE902AF8EEE00AA9
:101A0000C4ED010A00EE901AF8EEE00AC4ED000AF7
:101A1000D4ED000A94ED011A70EEC10AC4ED030A78
:101A2000D4ED030A94ED041A30EEC11AD4ED060A7F
:101A3000D4ED071A41EE810A94ED081AD4ED031A89
:101A400041EE210A94ED031AD4ED041AB0EE002AF7
:101A500002EE611AD4ED051A31EE211AD4ED091AFD
:101A600041EE810AC4ED020A94ED021A00EE903AAA
:101A7000F8EEE00AB4EEE01AF1EE10FA05DD00EE41
:101A8000903AF8EEE00AC4ED020AD4ED020AB8EE8C
:101A9000C01AF4EEC10AF1EE10FA03D2F8EEC00A51
:101AA000C4ED020A2C4800892B4D2D8AA8423EDD48
:101AB000D4ED020A9FED291AF4EEC10AF1EE10FAF4
:101AC00016DD25480089244D2D8AA84201DD01201C
:101AD00000E0002000EB8000400000EE900AF8EEED
:101AE000E00A94ED021A71EE600AC4ED020A1EE0EB
:101AF000D4ED020A9FED1A1AF4EEC10AF1EE10FAC3
:101B000015D215480089144D2D8AA84201DD012007
:101B100000E0002000EB8000400000EE900AF8EEAC
:101B2000E00A94ED021A70EE810AC4ED020AD4EDC7
:101B3000020AC4ED060AD4ED040AC4ED050AD4ED88
:101B4000030AC4ED040AD4ED020AFDEEE00A10EE29
:101B5000900A00B230BD0000583001200000484219
:101B6000000048C2B3EE090A0C4880ED070A9FED59
:101B70000C0A80ED080A9FED0A0A80ED090A9FED24
:101B8000090A094880ED070A9FED080A80ED080A56
:101B90009FED070A80ED090A704700006C300120B4
:101BA00000000000CDCC0C40943001206666E63E7B
:101BB000CDCC4C3D10B504F01FFF00F0B3FA10BDC2
:101BC00029B1064A12680243044B1A6004E0034A32
:101BD00012688243014B1A6070470000303802409F
:101BE00029B1064A12680243044B1A6004E0034A12
:101BF00012688243014B1A6070470000403802406F
:101C000029B1064A12680243044B1A6004E0034AF1
:101C100012688243014B1A6070470000443802404A
:101C200029B1064A12680243044B1A6004E0034AD1
:101C300012688243014B1A6070470000243802404A
:101C4000F0B5002100220024022500260223324F95
:101C50003F6807F00C0121B1042905D0082937D1CC
:101C600005E02E4F076036E02D4F076033E02A4F26
:101C70003F1F3F68C7F38056274F3F1F3F6807F05D
:101C80003F036EB1264FB7FBF3F7DFF88CC0ACF122
:101C9000040CDCF800C0CCF3881C07FB0CF40CE04F
:101CA0001E4FB7FBF3F7DFF870C0ACF1040CDCF8A3
:101CB00000C0CCF3881C07FB0CF4174F3F1F3F6894
:101CC000C7F301477F1C7D00B4FBF5F7076002E016
:101CD000124F076000BF00BF0F4F3F6807F0F001D1
:101CE0000909104F7A5C0768D74047600A4F3F6880
:101CF00007F4E051890A0B4F7A5C4768D740876048
:101D0000054F3F6807F46041490B064F7A5C47680E
:101D1000D740C760F0BD0000083802400024F4003E
:101D200000127A0014000020002100220DE04FF084
:101D300080435B6A18B2B0F57A7F02DBA0F2CF7302
:101D400018B20B1819B2501CC2B2032AEFDB0320E1
:101D500091FBF0F000B2034A508000204FF0804227
:101D600050627047583001201CB501211020FFF748
:101D700027FF4FF48050009000208DF804000220CF
:101D80008DF8050001208DF8070069460148FFF72E
:101D9000E9F81CBD001002401CB501211020FFF71E
:101DA0000FFF4FF48050009001208DF804008DF853
:101DB000060002208DF8050001208DF80700694615
:101DC0000148FFF7CFF81CBD001002400CB5002001
:101DD000019000903448006840F480303249086037
:101DE00000BF3148006800F4003000900198401CAA
:101DF0000190009818B90198B0F5A04FF1D12A4888
:101E0000006800F4003010B10120009001E00020D3
:101E100000900098012846D123484030006840F0E7
:101E200080502149403108602048006840F440401B
:101E30001E4908601C48083000681B4908310860CA
:101E40000846006840F4004008600846006840F416
:101E5000A05008601648091F0860081F006840F07D
:101E60008070091F086000BF0F48006800F0007014
:101E70000028F9D040F205700E4908600A48083081
:101E8000006820F00300084908310860084600682F
:101E900040F00200086000BF03480830006800F00E
:101EA0000C000828F8D10CBD00380240007000403A
:101EB00008544007003C02402DED088B82B038E00A
:101EC000012101A805F086F8FFF778F90446FEF72E
:101ED000BDFB41EC1B0B9FED170B53EC102BFEF7DA
:101EE00046FB41EC1A0B9FED150B53EC102BFEF744
:101EF000CCFA41EC190B9FED130B53EC102BFEF7B2
:101F0000C4FA41EC180BFEF7AEFB104908811048EB
:101F100000900846B0F90220B0F90A104FF47A7325
:101F20000C48FFF765FD09490880B1F9000004F08D
:101F30003FFEC5E7000000000000B0406666666630
:101F400066660A4069900669900670405830012024
:101F500018FCFFFF6C30012010B500BF502080F34B
:101F60001188BFF34F8FBFF36F8F00BF05F0CCFD1B
:101F700018B14FF080500449086000BF002080F382
:101F8000118800BF10BD000004ED00E010B5154839
:101F9000006840F47000134908601348006840F07E
:101FA00001001149086000200F49083108600E48FF
:101FB00000680E4908400C4908600D48091D08607A
:101FC000081F006820F48020091F086000200649CF
:101FD0000C310860FFF7FAFE4FF0006001498039CC
:101FE000086010BD88ED00E000380240FFFFF6FEFB
:101FF0001030002410B5FEF70DFDFEF757FD10BDA3
:10200000F0B50C46154600210022068C4FF6FE77EF
:102010003E400684018B028C4FF60C7631407E1CCC
:1020200006EA03162E4331434FF6F576324044F06C
:102030000106324301830284F0BDF0B50C4615461B
:10204000002100220026078C4FF6EF7C07EA0C07E0
:102050000784018B028C4FF6FF7707EA041640F6DF
:10206000FF4739404FF6FF7707EA033739434FF60A
:10207000FF7707EA052739434FF65F773A4046F086
:1020800010073A4301830284F0BDF0B50C461546B3
:10209000002100220026078C4FF6FF6C07EA0C0790
:1020A0000784818B028C4FF6FF7707EA04264FF6F0
:1020B0000C7739404FF6FF7707EA03172F43394370
:1020C0004FF2FF573A4046F480773A4381830284C7
:1020D000F0BDF0B50C461546002100220026078C05
:1020E0004EF6FF7C07EA0C070784818B028C4FF6C3
:1020F000FF7707EA043640F6FF4739404FF6FF778F
:1021000007EA052739434FF6FF7707EA03373943D4
:1021100045F6FF773A4046F480573A43818302847C
:10212000F0BD000000B589B001210802FFF758FD9D
:102130000B20ADF818000020ADF81A0040F2E7308F
:1021400007900020ADF8200006A90F4800F076F9AE
:102150006020ADF804000120ADF806000020ADF8C5
:10216000100001A9084800F0F1F80821064800F025
:102170002BF90121044800F029F80121024800F060
:1021800037F809B000BD00000020004010B500BFC6
:102190005021EFF3118081F31188BFF34F8FBFF30C
:1021A0006F8F00BF04460121074800F04EF828B1A8
:1021B0000121054800F019F8FFF7B6FD00BF84F3D0
:1021C000118800BF10BD0000000C004021B1028842
:1021D00042F08002028004E002884FF67F731A40CA
:1021E00002807047CA4302827047CA430282704726
:1021F00021B1028842F00102028004E002884FF619
:10220000FE731A4002807047F0B50C4615461E4614
:102210000021002200230189028B038C4FF6F877FE
:10222000394021434FF6FC473A4040F201173A4308
:102230004FF6DD773B404FF6FF7707EA06172F434F
:102240003B43018102830384F0BD30B50246002088
:1022500000230024158A05EA0103958905EA010493
:1022600013B10CB1012000E0002030BD70B505466F
:102270000C46208850B92389A28861882846FFF738
:10228000BFFEE188284600F0ACF825E0208804284D
:102290000AD12389A28861882846FFF7CEFEE1880B
:1022A000284600F0A7F817E0208808280AD12389DB
:1022B000A28861882846FFF7E8FEE188284600F0FA
:1022C000A6F809E02389A28861882846FFF701FF64
:1022D000E188284600F0A4F870BD0021018041800B
:1022E000012181800021C180018170471AB1838959
:1022F0000B43838102E083898B4383817047000015
:102300000EB501210820FFF76BFC42F2CF00ADF8BB
:1023100000000020ADF80200132001900020ADF86D
:1023200008006946084800F089F801210648FFF7CF
:1023300059FF012211460448FFF7D8FF0121024846
:10234000FFF756FF0EBD0000000C004070B50024E2
:1023500000220023058C4FF6FE7635400584028C62
:102360008388048B4FF68F752C40B51E2C400D884A
:102370002C43751E2A408D892A434D882A43104DCF
:10238000A84202D00F4DA84213D14FF6F7752A404C
:10239000CD892A434FF6FB752A408D882A434FF694
:1023A000FF652B404FF6FF552B400D8A2B434D8A7E
:1023B0002B43838004838D684563028470BD0000D5
:1023C00000000140000401400A460021018B4FF645
:1023D000F7731940114301837047416370474162AD
:1023E0007047028B4FF6F3731A400283028B0A4345
:1023F00002837047028B4FF2FF331A400283028B35
:102400004FF6FF7303EA01231A4302837047828B5E
:102410004FF6F3731A408283828B0A43828370479C
:10242000828B4FF2FF331A408283828B4FF6FF7309
:1024300003EA01231A4382837047000000220288C6
:10244000184B98420ED0184B98420BD0B0F1804FE9
:1024500008D0164B984205D0154B984202D0154B28
:10246000984204D14FF68F731A404B881A43124B8F
:10247000984207D0114B984204D04FF6FF431A40C0
:102480000B891A4302804B68C3620B880385054B96
:10249000984202D0044B984201D18B7A03860123E3
:1024A00083827047000001400004014000040040A6
:1024B00000080040000C00400010004000140040E4
:1024C0004FF0FF3141600021018001814180817224
:1024D000704710B500F003F8FFF712FF10BD08B504
:1024E00032208DF8000000208DF8010003208DF8C7
:1024F000020001208DF803006846FFF78BF908BD44
:1025000010B500BF5021EFF3118081F31188BFF3A4
:102510004F8FBFF36F8F00BF044640F225511A481A
:1025200000F051F810B3184800F006F91749184A9E
:102530001278885416480078401C154908700846DF
:102540000078401E1149085CAA2810D1084600787E
:10255000A52808D10E4801780C4801F02DFF002075
:102560000B4908700AE000200949087006E0084895
:102570000078052802D100200549087000BF84F3C7
:10258000118800BF10BD000000100140B400002001
:10259000B900002021B1828942F40052828104E016
:1025A00082894DF6FF731A408281704702460020EF
:1025B000B1F5007F00D100BF13880B400BB10120A3
:1025C00000E00020704770B502460024002300257B
:1025D000002040F66A16B14200D100BFC1F3421597
:1025E00001F01F03012606FA03F3012D02D196899B
:1025F000334006E0022D02D1168A334001E0968A6C
:1026000033400C12012606FA04F41688344013B144
:102610000CB1012000E0002070BDF0B5034600249D
:1026200000260025002040F66A17B94200D100BFFD
:102630001846C1F3421401F01F06012707FA06F5F8
:10264000012C01D10C3004E0022C01D1103000E04B
:1026500014301AB107682F43076002E00768AF43E0
:102660000760F0BD2DE9FF4705460E460024A14650
:1026700000BFA046B08900B100BF2C8A24F44054AA
:10268000F08804432C82AC8941F20C608443B0880A
:1026900031890843718908430443AC81AC8A24F42E
:1026A0004074B0890443AC826846FFF7C9FA2048F9
:1026B000854202D01F48854202D1DDF80C9001E02E
:1026C000DDF80890A88900F4004040B109EBC9008A
:1026D00000EB091031684900B0FBF1F707E009EBA6
:1026E000C90000EB091031688900B0FBF1F76420E4
:1026F000B7FBF0F004012009642101FB1078A889E0
:1027000000F4004040B1322000EBC800B0FBF1F013
:1027100000F00700044308E0322000EB08106421B9
:10272000B0FBF1F000F00F0004432C81BDE8FF87FF
:10273000001001400014014001468888C0F30800E1
:102740007047C1F308028280704700BFFEE70000B7
:1027500070B504460D46A521074800F00FF8214644
:10276000054800F00BF82946034800F016F8AA21A6
:10277000014800F003F870BD0010014070B5044638
:102780000D4629462046FFF7DCFF00BF802120468A
:10279000FFF70CFF0028F9D070BD2DE9F041054688
:1027A0000C46260AE7B231462846FFF7CAFF00BFAB
:1027B00080212846FFF7FAFE0028F9D0394628463E
:1027C000FFF7BFFF00BF80212846FFF7EFFE00287C
:1027D000F9D0BDE8F08100002FE0082004F0CCFB28
:1027E0001648008881B20120FFF7B2FF1348018923
:1027F0000220FFF7ADFF1148408881B20320FFF7A8
:10280000A7FF0E48408981B20420FFF7A1FF0B48C3
:1028100090ED010ABCEEC00A10EE100A81B205204C
:10282000FFF796FF054890ED030ABCEEC00A10EED4
:10283000100A81B20620FFF78BFFCEE75830012047
:102840000FB4054B10B503A9044A029800F0FAFC36
:1028500010BC5DF814FB000011440008F4000020D7
:1028600003B401984100009850EAC12018BF042029
:102870004A0D18BF40F0010040F2FF72B2EB515F09
:1028800008BF40F00200012808BF052002B07047D1
:1028900070B5C1482DED020B2DED0E8B82B0119D50
:1028A00025F000449FEDBEDB9FEDBFEB84423EDB95
:1028B000A4F140511098A1F17F6108430FD0BC48AA
:1028C000844202DC28D1109830B39DED100B02B089
:1028D000BDEC0E8B02B0BDE8704000F069BC9DED10
:1028E000100B53EC1D2B51EC100BFDF7CEFD9DEDA5
:1028F000100B41EC180B53EC1E2B51EC100BFDF799
:10290000C4FD53EC182BFDF719FD41EC100B02B080
:10291000BDEC0E8B02B070BD012000F08DFC02B04A
:10292000BDEC0E8B02B0BDE8704000F055BCA14874
:102930009FEDA18B844256DA9DED100BB4F1795FC7
:102940000ADA51EC100BFFF78BFF042808BF00F0E8
:1029500053FC9DED100BDAE753EC102B51EC100BF0
:10296000FDF793FD41EC190B95480621B0EE490A9D
:10297000F0EE690A784400F09FFB53EC192B51EC00
:10298000100BFDF782FD41EC1A0B8E48B0EE490AA0
:10299000F0EE690A0421784400F08EFB53EC192B09
:1029A00051EC100BFDF771FD53EC182BFDF7C6FC35
:1029B00041EC100B51EC1A0B53EC102BFDF7D7FD2B
:1029C000CDE900019DED000B53EC102B9DED100B9C
:1029D00051EC100BFDF759FD9DED101B53EC112B25
:1029E000FDF7ACFCD2E09DED100B51EC100B01F0AB
:1029F00003FD53EC182BFDF745FD9FED730BCDE95F
:102A0000000153EC102B9DED000B51EC100BFDF76A
:102A10003CFD41EC190B6E480621B0EE490AF0EE80
:102A2000690A784400F048FB53EC192B51EC100B69
:102A3000FDF72BFD41EC1B0B6648B0EE490AF0EEAA
:102A4000690A0421784400F037FB53EC192B51EC50
:102A5000100BFDF71AFD53EC182BFDF76FFC41EC42
:102A60001C0B51EC190B04F0BDF841EC180B5A4843
:102A70009FED5BABA04222DC53EC1C2B51EC1B0BFB
:102A8000FDF775FDCDE900019DED000B51EC180B34
:102A900053EC102BFDF7F9FC53EC182BFDF74EFC13
:102AA00053EC1A2BFDF7F1FC53EC1D2BFDF7E7FC63
:102AB00053EC1E2BFDF7E6FC41EC100B5FE08DEDB7
:102AC000008B002000909DED000B51EC180B53EC97
:102AD000102BFDF733FC9DED000B41EC1E0B53EC6E
:102AE000102B51EC100BFDF7D0FC53EC192BFDF71C
:102AF000C9FC53EC1E2BFDF73AFD41EC190B53ECCE
:102B00001C2B51EC1B0BFDF732FD41EC1B0B53EC66
:102B10001A2B51EC190BFDF7B8FC53EC1D2BFDF7EC
:102B2000B1FC41EC190B53EC1A2B51EC180BFDF7CF
:102B3000ACFC53EC1B2BFDF7A8FC53EC192BFDF759
:102B40009EFC9DED000B41EC180B53EC1A2B51EC45
:102B5000100BFDF79AFC9FED249B53EC192BFDF70E
:102B600091FC41EC100B51EC180B53EC102BFDF7C2
:102B700086FC53EC192BFDF785FC41EC100B002D66
:102B80003FF7C5AE51EC100B81F0004141EC100B4A
:102B9000BDE60000000000000000F03F0000000063
:102BA000075C143326A6913C182D4454FB21F93FB1
:102BB0000000F07F0000E03F000000000000F03F58
:102BC000B0690000BE690000000000000000E03FA6
:102BD00002690000106900003333EF3F000000007D
:102BE0000000000000000040182D4454FB21E93F84
:102BF00070B59B482DED020B2DED068B079D25F042
:102C00000044A04218DC9748844202DC0AD10698AE
:102C100040B19DED060BBDEC068B02B0BDE87040E7
:102C200000F0C6BA002DCCBF9FED8F0B9FED900B2F
:102C3000BDEC068B02B070BD8F48A04215DD8F48F9
:102C4000A042D8BF4FF0FF3458DD9DED060B51EC8C
:102C5000100BFFF705FE042808BF00F0CDFA9DED2C
:102C6000060BBDEC068B02B070BD9DED060B51EC62
:102C7000100B01F0C1FBCDE9060181489FED828B6D
:102C8000A0423CDD8248A0421FDD00249FED82ABC4
:102C90009DED060B53EC1A2B51EC100BFDF74EFB80
:102CA0009DED060B41EC190B53EC1A2B51EC100B5C
:102CB000FDF7EBFB53EC182BFDF7E1FB53EC192B65
:102CC000FDF755FCCDE9060149E09DED060B012419
:102CD00053EC182B51EC100BFDF730FB9DED060B60
:102CE00041EC190B53EC182B51EC100BFDF7C7FB03
:102CF00053EC192BFDF73BFCCDE906012FE06848AA
:102D0000A0421FDD02249FED689B9DED060B53EC56
:102D1000192B51EC100BFDF7B8FB53EC182BFDF7FA
:102D20000DFB9DED060B41EC180B53EC192B51ECF0
:102D3000100BFDF7A4FB53EC182BFDF718FCCDE9A5
:102D400006010CE09DED060B032453EC102B9FEDC8
:102D5000580B51EC100BFDF70AFCCDE906019DED77
:102D6000060B53EC102B51EC100BFDF78EFB41ECD6
:102D7000180B53EC182BFDF788FB41EC190B4E4850
:102D80000621B0EE490AF0EE690A784400F094F9A1
:102D900053EC182B51EC100BFDF777FB41EC180BA3
:102DA0004648B0EE490AF0EE690A0521784400F081
:102DB00083F953EC192B51EC100BFDF766FB41EC3A
:102DC000100B51EC180B53EC102B002C0EDAFDF706
:102DD000B5FA9DED061B53EC112BFDF756FB9DED4F
:102DE000061B53EC112BFDF74DFB35E0FDF7A6FA62
:102DF0009DED061B53EC112BFDF747FB41EC100B2F
:102E00002F48784400EBC40090ED001B51EC100BF0
:102E100053EC112BFDF733FB9DED061B53EC112BEF
:102E2000FDF72DFB41EC100B2648784400EBC40065
:102E300090ED001B51EC100B53EC112BFDF722FB16
:102E400041EC100B002DA2BFBDEC068B02B070BD93
:102E500051EC100B81F0004141EC100B01E7000038
:102E6000000010440000F07F182D4454FB21F93F6E
:102E7000182D4454FB21F9BF0000DC3F0000203E28
:102E80000000F33F00000000000000000000F03FE1
:102E90000000E63F000000000000000000000040CD
:102EA0000080034000000000000000000000F83F28
:102EB000000000000000F0BF52660000086600003D
:102EC000926500004A65000070B56B4E2DED040B55
:102ED0002DED028B82B0DDF81CC0DDE905235C42DC
:102EE0002CF000411C4341EAD474049D22F00040C0
:102EF000B44205D86C422C4340EAD474B4420BD996
:102F00009DED061B9DED040B02B0BDEC028B04B0E1
:102F1000BDE8704000F056B9ACF14054A4F17F64B4
:102F20001C430BD0022404EAAC7444EAD274054377
:102F30009FED538B9FED542B07D015E09DED040BB7
:102F400051EC100B00F010FC42E0002C11BF012CE2
:102F50009DED040B02B0BDEC028B04BF04B070BD4C
:102F6000022C38D0032C3BD00B439FED491B9FED27
:102F70004A0B0AD0B14218D1B04209D121F08041A8
:102F800020F08040079105900FE0002A15DA10E04C
:102F9000434B7B44002C08BF93ED000B0DD0012C5C
:102FA00010D0022C17D0032C1AD0B0421DD1002A09
:102FB00003DAB0EE410AF0EE610A02B0BDEC028B1A
:102FC00004B070BD93ED000B51EC100B81F000418B
:102FD00041EC100BF1E7B0EE480AF0EE680AECE7BE
:102FE000B0EE420AF0EE620AE7E7401A00153C280C
:102FF000C8BF8DED000B19DCBCF1000FBEBF10F196
:103000003C0F9FED290B8DED000B0FDB9DED060BAB
:1030100053EC102B9DED040B51EC100BFDF7A7FAB0
:1030200001F0EAF900F0A0FBCDE90001002C08BF97
:103030009DED000BC1D0012C10D0022C9FED1C0B7C
:1030400053EC102B9DED000B51EC100B0DD0FDF748
:1030500016FA53EC182BFDF712FAB9E7019880F035
:10306000004001909DED000BA7E7FDF708FA53EC37
:10307000182BFDF707FAABE70000F07F0000000017
:10308000182D4454FB210940182D4454FB2109C03C
:10309000182D4454FB21F9BF182D4454FB21F93F4E
:1030A0007A64000000000000000000000000000042
:1030B000075C143326A6A13C70B504462DED028BA7
:1030C0004D1E00EBC500B0EE408AF0EE608A90ED38
:1030D000000B35F0060017D053EC182B51EC100BF9
:1030E000FDF7D3F941EC100B6D1E04EBC50090ED1C
:1030F000001B51EC100B53EC112BFDF71FF941ECA9
:10310000100B35F00600E7D1022D36D0042D1CD06F
:10311000062D1CBFBDEC028B70BD53EC182B51EC7F
:10312000100BFDF7B2F994ED0A1B53EC112BFDF7D0
:1031300005F953EC182BFDF7A8F994ED081B53EC97
:10314000112BFDF7FBF841EC100B53EC182B51EC55
:10315000100BFDF79AF994ED061B53EC112BFDF7BC
:10316000EDF853EC182BFDF790F994ED040B53ECAC
:10317000102BFDF7E3F841EC100B53EC182B51EC3E
:10318000100BFDF782F994ED021B53EC112BFDF7A8
:10319000D5F853EC182BFDF778F994ED001B53ECA0
:1031A000112BFDF7CBF8BDEC028B41EC100B70BD81
:1031B00010B553EC102B51EC100BFDF7BFF841ECA0
:1031C000100B10BD10B553EC112B51EC100BFDF78B
:1031D000B5F841EC100B10BD9FED050B10B553EC8D
:1031E000102B51EC100BFDF7C2F941EC100B10BD88
:1031F00000000000000000009FED050B10B553EC2F
:10320000102B51EC100BFDF740F941EC100B10BDE9
:10321000000000000000001002E008C8121F08C1F2
:10322000002AFAD170477047002001E001C1121F47
:10323000002AFBD170470000014908607047000078
:10324000F80000202DE9FF4F8DB00F4605460026FF
:1032500006E025280BD0DDE90F1290476D1C761C87
:1032600028780028F5D111B03046BDE8F08F002451
:10327000A246A1460122EC4900E0044315F8013FB3
:10328000203B02FA03F00842F7D128782A2810D010
:103290006FF02F022878A0F13001092914D80AEB29
:1032A0008A0102EB410144F0020400EB010A6D1CAB
:1032B000F0E701CF5FEA000A03D544F40054CAF1F5
:1032C000000A44F002046D1C28782E2817D115F846
:1032D000010F44F004042A280ED06FF02F02287842
:1032E000A0F1300109290AD809EB890102EB41015B
:1032F00000EB01096D1CF2E757F8049B6D1C287860
:103300006C280FD006DC4C2817D068280DD06A280E
:1033100014D104E0742810D07A280FD10DE044F4C1
:1033200000140AE044F4801401E044F44014697885
:10333000814202D104F580146D1C6D1C2A786E2A1E
:103340001FD00CDC632A31D004DC002A8BD0582A31
:1033500011D1A3E0642A68D0692A0CD165E0732AF0
:103360002ED004DC6F2A73D0702A04D19BE0752A1A
:103370006FD0782A6ED01046DDE90F129047761C88
:1033800050E1C4F30250022806D0032809D00428D3
:1033900001CF09D0066045E101CFF117C0E9006116
:1033A00040E101CF06803DE106703BE117F8040BD8
:1033B0008DF8000000208DF80100EB46012003E0AD
:1033C00057F804BB4FF0FF3061074FF0000102D403
:1033D0000DE008F10101884649450FDA8045F8DB28
:1033E0001BF808100029F4D108E008F10101884613
:1033F0008142FADB1BF808100029F6D1DDE90F2322
:10340000AAEB08008146214600F036F9304400EB73
:10341000080604E0DDE90F121BF8010B9047B8F134
:103420000108F7D221464846F7E00A21C4F30253C7
:103430004FF0000B0891022B04D001CFC117032BD2
:1034400009D00AE0FF1D27F00707F7E8020108E0AE
:1034500032E01FE020E000B2C117042B01D140B2DE
:10346000C117031E71F1000307DA4FF0000CD0EB17
:103470000C006CEB01012D2302E0230504D52B2366
:103480008DF82430012303E0E30701D02023F7E780
:10349000984658E00A2110E010210EE010204FF06D
:1034A000000B08900CE010214FF0000B44F00404D6
:1034B0004FF00809089103E008214FF0000B089134
:1034C000C4F30253022B04D001CF0021032B06D0FA
:1034D00006E0FF1D27F00707F7E8020103E080B2CE
:1034E000042B00D1C0B24FF0000823072BD5702A5F
:1034F00007D0DDF820C08CF0100C5CEA0B0C05D076
:103500000EE040238DF82430012308E050EA010347
:1035100006D030238DF824308DF8252002239846DC
:10352000DDF820C08CF0080C5CEA0B0C0BD150EAE3
:10353000010301D1630706D530238DF824304FF005
:103540000108A9F10109582A04D038A20B9208AA4F
:103550000A920BE03AA2F9E75B46089AFDF7CBF82E
:103560000B9B9B5C0A9A521E0A92137050EA01024E
:10357000F2D10A98ADEB000000F1200B600702D5F4
:1035800024F4803401E04FF00109D94502DDA9EBB4
:103590000B0000E0002000EB0B0141440890AAEB77
:1035A000010AE00306D4DDE90F232146504600F06E
:1035B00063F806444FF0000908E009A911F8090072
:1035C000DDE90F12904709F10109761CC145F4DBD2
:1035D000E0030CD5DDE90F232146504600F04CF8FE
:1035E000064404E0DDE90F1230209047761C08996C
:1035F000481E08900029F5DC08E00A980A9900782E
:10360000491C0A91DDE90F129047761CBBF10001BD
:10361000ABF1010BF1DC21465046DDE90F2300F050
:1036200019F806446D1C1BE60928010030313233BD
:1036300034353637383961626364656600000000EE
:1036400030313233343536373839414243444546D8
:10365000000000002DE9F041044600251E461746F3
:10366000880404D405E039462020B0476D1C641E50
:10367000F9D52846BDE8F0812DE9F0410446002542
:103680001E469046C80301D5302700E02027880455
:1036900004D505E041463846B0476D1C641EF9D597
:1036A0002846BDE8F0810000F0B52DED028B83B017
:1036B00006460F460025684600F0BCFE002448E0A0
:1036C00056F8241057F82420881A002801DB0146F8
:1036D00000E0414200EE101AB8EEC00ADFED200A09
:1036E00080EE208A684600EB840090ED000AB5EE7B
:1036F000C00AF1EE10FA19D0684600EB8400D0ED54
:10370000000A88EE200AF7EE000A70EE608A00BF19
:10371000B0EEE80A1348D0ED090AB4EEE00AF1EE83
:1037200010FA15DD0120A040054311E00D4890ED91
:10373000070AB4EEC80AF1EE10FA06DC90ED080AAA
:10374000B4EEC80AF1EE10FA02D20120A0400543FF
:10375000641C032CB4DB284603B0BDEC028BF0BD27
:10376000000080470887000810B541EC100BFFF7F8
:103770003FFA51EC100B10BD10B5FDF79DFB10BDCD
:103780002DE9F0410446E07800F0C006E07800F052
:103790003F05607800F0010098B1EF102846E91766
:1037A00005EB5171C910A5EBC101491C01F0FF08DF
:1037B0000B48006820B10A484146026838469047E5
:1037C00000BF607800F0080030B10548406818B1CB
:1037D000B011034A516888470020BDE8F08100001D
:1037E000BC30012038B5044664B120208DF80000BB
:1037F00028208DF8010030208DF8020038208DF847
:10380000030004E0A32204216846FCF778FD6A4621
:10381000042140F69E2002F053FB01F03DFF38BD2D
:103820003EB5044602208DF80000CA208DF8010044
:10383000E3208DF8020009208DF803006A46042178
:10384000682002F03DFBA3208DF8000004F040004A
:1038500048B1C0208DF80100C8208DF80200C220B8
:103860008DF8030006E0A3208DF801008DF802001A
:103870008DF8030004F4C07048B1C4208DF8040032
:10388000CC208DF80500C6208DF8060006E0A320A8
:103890008DF804008DF805008DF80600A3208DF842
:1038A00007008DF808008DF809006A460A2140F6E5
:1038B000A72002F005FB04F0030018B120208DF8CA
:1038C000000002E0D8208DF800006A46012140F691
:1038D000B62002F0F5FA04F0200018B1012000F043
:1038E000ADF802E0002000F0A9F804F4C07008B3BD
:1038F00004F4807060B1B2208DF800008B208DF848
:103900000100B6208DF802009B208DF803000BE02B
:10391000B0208DF8000080208DF80100B4208DF8D3
:10392000020090208DF803006A46042140F6A22090
:1039300002F0C6FA04F0010020B3F8208DF8000070
:103940006A4601214FF40B6002F0BAFAFA2107200F
:1039500000F02CFC072000F0F3FB012000F013FC2A
:10396000642000F003FD4FF4FA7000F012FDC8214E
:10397000304800F0A3FB282000F0BCFB0A2000F038
:10398000CCFB08E0D8208DF800006A4601214FF4F6
:103990000B6002F095FA04F0020018B1D9208DF8FE
:1039A000000002E0D8208DF800006A46012140F2B4
:1039B0003D7002F085FA04F0040018B1012000F017
:1039C00069F802E0002000F065F804F0100018B17A
:1039D0000120FFF707FF02E00020FFF703FF44F09C
:1039E00008001549488101F057FE002012498873EC
:1039F00004F0400018B10846807B801D887304F4F1
:103A0000C07020B10C48807B801D0B49887304F086
:103A1000140020B10848807B10300749887304F0F7
:103A2000030020B10448807B001D034988730020F7
:103A30003EBD000009E3CA02BC3001203EB5044689
:103A40006CB10EA1D1E900208968CDE90020029176
:103A50006A4609214FF4976002F032FA3EBD0AA28D
:103A6000D2E900109268CDE9010200916A4609216D
:103A70004FF4976002F024FAF0E70000B8AAB38D83
:103A8000B4980D355D000000B8AAAAAAB088C3C5D5
:103A9000C700000038B5044664B1C0208DF80000AE
:103AA000C2208DF80100C4208DF80200C6208DF8D8
:103AB000030004E08B2204216846FCF720FC6A46E0
:103AC000042140F6982002F0FBF901F0E5FD38BD35
:103AD00010B5C8234FF48062024940F6F63001F079
:103AE0006FFC10BD308700082DE9F04F8DB0074600
:103AF000884615469946DDE9166B00240020308083
:103B00006B49887B5A4605A901F026FD18B1601E55
:103B10000DB0BDE8F08F6648807A00F014000028F0
:103B200067D09DF8140000069DF8151040EA01408A
:103B30009DF8161040EA01209DF8171008432860F0
:103B40009DF8180000069DF8191040EA01409DF804
:103B50001A1040EA01209DF81B10084368609DF888
:103B60001C0000069DF81D1040EA01409DF81E1043
:103B700040EA01209DF81F100843A8609DF820002E
:103B800000069DF8211040EA01409DF8221040EA0D
:103B900001209DF823100843E86004F11000C4B22E
:103BA000286800140190686800140290A868001446
:103BB0000390E8680014049001984043029901FBC7
:103BC0000100039901FB0100049901FB010ABAF10C
:103BD000706F02DBBAF1885F05DD01F05DFD00204A
:103BE0003080401E94E7B6F9000040F480703080C9
:103BF00000BF2F48807A00F0400020B305A9601C68
:103C0000085C095D40EA012000B2A8F8000005A99F
:103C1000E01C095C05AAA01C105C41EA002000B26F
:103C2000A8F8020005A9601D095C201D105C41EA8E
:103C3000002000B2A8F80400A01DC4B2B6F900002C
:103C400040F0080030801A48408900F4C07008B382
:103C500005A9601C085C095D40EA012000B23880BB
:103C600005A9E01C095C05AAA01C105C41EA002023
:103C700000B2788005A9601D095C201D105C41EA36
:103C8000002000B2B880A01DC4B2B6F9000040F018
:103C9000700030800648807A00F0030018B105A952
:103CA0000819FFF76DFD484601F01CF800202FE7CA
:103CB000BC30012070B588B0064601A801F0CCF9EF
:103CC000BDF804000021C90341EA5045C40344483B
:103CD000007A00F0030056F8200005904048007A72
:103CE00000F0040010B10598404205903C48007A6D
:103CF000C0F3C10056F8200006903948007A00F061
:103D0000200010B10698404206903548007AC0F372
:103D1000811056F8200007903148008900F4807027
:103D200010B10798404207900598C117A0FB0423E3
:103D300001FB043100FB0510810041EA92700590FF
:103D40000698C117A0FB042301FB043100FB0510FA
:103D5000810041EA927006900798C117A0FB0423E6
:103D600001FB043100FB0510810041EA92700790CD
:103D70000598000E8DF808000598000C8DF80900D4
:103D80000598000A8DF80A000598C0B28DF80B005E
:103D90000698000E8DF80C000698000C8DF80D00AA
:103DA0000698000A8DF80E000698C0B28DF80F0034
:103DB0000798000E8DF810000798000C8DF8110080
:103DC0000798000A8DF812000798C0B28DF813000A
:103DD00002AA0C214FF4257002F072F808B070BDF1
:103DE000BC30012030B585B0044616A207CA02AB2C
:103DF00007C3C82C03DD4FF0FF3005B030BDC8202D
:103E000090FBF4F0401E85B2280A8DF80000E8B25D
:103E10008DF801006A46022140F2162002F050F8A7
:103E200010B14FF0FF30E8E702AA0C2140F6C120A4
:103E300002F046F810B14FF0FF30DEE7044884810D
:103E40000020DAE7FEF2ABC4AAF1DFDFBBAFDFDFB1
:103E5000BC3001201FB504464848007A00F003003A
:103E600054F8200001904548007A00F0040010B199
:103E70000198404201904148007AC0F3C10054F8D3
:103E8000200002903D48007A00F0200010B1029816
:103E9000404202903948007AC0F3811054F8200063
:103EA00003903648008900F4807010B103984042B6
:103EB00003903349019880FB0101800F40EA8100A3
:103EC00001902F49029880FB0110820042EA917014
:103ED00002902B49039880FB0110820042EA917006
:103EE00003900198000E8DF800000198000C8DF8E9
:103EF00001000198000A8DF802000198C0B28DF807
:103F000003006A4604214FF4747001F0D9FF18B120
:103F10004FF0FF3004B010BD0298000E8DF8000085
:103F20000298000C8DF801000298000A8DF802003A
:103F30000298C0B28DF803006A4604214FF47570F0
:103F400001F0BEFF10B14FF0FF30E3E70398000E21
:103F50008DF800000398000C8DF801000398000A0A
:103F60008DF802000398C0B28DF803006A46042160
:103F70004FF4767001F0A4FFCCE70000BC300120C4
:103F800009E3CA0210B586B0044647A00068039052
:103F900046A00068029046A00068019045A0006815
:103FA000009004F0030003A9085C8DF8140003A836
:103FB000C4F3C101405C8DF8150003A8C4F381115E
:103FC000405C8DF8160004F0030002A9085C8DF82F
:103FD000100002A8C4F3C101405C8DF8110002A8D2
:103FE000C4F38111405C8DF8120005AA032140F250
:103FF000264001F065FF18B14FF0FF3006B010BD4C
:1040000004AA032140F22A4001F05AFF10B14FF0F8
:10401000FF30F3E7019805900098049004F0040045
:1040200058B19DF8140040F001008DF814009DF87F
:10403000100040F001008DF8100004F0200058B18D
:104040009DF8150040F001008DF815009DF8110055
:1040500040F001008DF8110004F4807058B19DF813
:10406000160040F001008DF816009DF8120040F097
:1040700001008DF8120005AA03214FF4886001F0B9
:104080001FFF10B14FF0FF30B8E704AA032140F240
:10409000314001F015FF10B14FF0FF30AEE7064898
:1040A00004810020AAE700004CCD6C000CC92C0054
:1040B0003656760026466600BC300120F8B5054627
:1040C0000E464FF47A7095FBF0F000FB06F4200EDC
:1040D0008DF80000200C8DF80100200A8DF80200F8
:1040E000E0B28DF803006A4604214FF4AE7001F08F
:1040F000E7FEF8BD38B50446052094FBF0F084B225
:1041000020128DF80000E0B28DF801006A4602210D
:104110004FF4AD7001F0D4FE38BD38B5044605202B
:1041200094FBF0F084B220128DF80000E0B28DF81C
:1041300001006A4602214FF4AC7001F0C1FE38BDA7
:1041400038B504460020009004F0010020B19DF82D
:10415000000040F03000009004F0020020B19DF813
:10416000000040F00C00009004F0040020B19DF825
:10417000000040F0030000906A4601214FF4A47053
:1041800001F09EFE38BD38B50446012C01DA012449
:1041900002E0042C00DD0424601EC0B200906A46D8
:1041A000012140F24F1001F08BFE38BDF0B52DED2E
:1041B000028B83B006460F4606F0070010B1B7F534
:1041C000C86F05DD4FF0FF3003B0BDEC028BF0BDD2
:1041D00000EE107AB8EE400ADFED5B0A80EE208A2E
:1041E00001A800F013FF9DF80400022806D004285F
:1041F00017D0082828D010284CD138E09FED530A5A
:1042000028EE000ABCEEC00A10EE100A84B29FED40
:10421000500A28EE000ABCEEC00A10EE100A85B261
:104220003BE09FED4C0A28EE000ABCEEC00A10EEFF
:10423000100A84B29FED480A28EE000ABCEEC00ABC
:1042400010EE100A85B228E09FED440A28EE000A1D
:10425000BCEEC00A10EE100A84B29FED410A28EEAF
:10426000000ABCEEC00A10EE100A85B215E09FED00
:104270003D0A28EE000ABCEEC00A10EE100A84B215
:104280009FED390A28EE000ABCEEC00A10EE100AB3
:1042900085B202E04FF0FF3096E700BF20128DF8A4
:1042A0000800E0B28DF8090028128DF80A00E8B283
:1042B0008DF80B0006F00100A0B102AA02214FF414
:1042C000EA7001F0FDFD10B14FF0FF307CE70DF119
:1042D0000A0202214FF4927001F0F2FD10B14FF08A
:1042E000FF3071E706F00200A0B102AA02214FF4EC
:1042F000EC7001F0E5FD10B14FF0FF3064E70DF117
:104300000A0202214FF4947001F0DAFD10B14FF06F
:10431000FF3059E706F00400A0B102AA02214FF4D1
:10432000EE7001F0CDFD10B14FF0FF304CE70DF114
:104330000A0202214FF4967001F0C2FD10B14FF055
:10434000FF3041E700203FE700004843000080467F
:1043500000004046000000460000C04500008045C7
:1043600000004045000000450000C04438B5044648
:10437000052094FBF0F085B228128DF80000E8B219
:104380008DF801006A4602214FF4EF7001F098FDAC
:1043900038BD38B50446052094FBF0F085B22812EC
:1043A0008DF80000E8B28DF801006A4602214FF452
:1043B000ED7001F085FD38BD10B50246052915DB0D
:1043C000538818B25378012B0FD1002800DA00204F
:1043D000EB2800DDEB200023054C237000EE100AD3
:1043E000B8EEC00A034B83ED030A00BF10BD000006
:1043F000980000205830012082B0CDE9000121F062
:10440000004001909DED000B02B051EC100B704785
:1044100070B504460D46E1B20548FEF792F900BFBB
:1044200080210348FEF7C2F80028F9D0204670BD6D
:10443000001001407CB505462E494968087801AB5B
:1044400004220D21FDF70CF908B107207CBD9DF871
:104450000700C0F301109DF8041001F0E00140EAEC
:10446000E1008DF800009DF80700C0F381009DF881
:10447000051001F0E00140EAE1008DF801009DF82F
:10448000070000F003009DF8061001F0E00140EA8B
:10449000E1008DF80200002427E01DF8040030B987
:1044A0009FED150A05EB840080ED000A1BE09FEDEF
:1044B000130A05EB840080ED000A0BE005EB840095
:1044C00090ED000ADFED0E0A20EE200A05EB8400D5
:1044D00080ED000A1DF80400401EC0B20DF8040073
:1044E0000028EBD100BF601CC4B2032CD5DB002038
:1044F000ACE70000BC000020000000007B14AE3ED2
:104500001D5A843F2DE9F04F87B005460C46914671
:1045100001208DF8100000208DF81100FE4A12686D
:10452000917CFD4A5268107804AB0222FDF73EF9F7
:1045300020B14FF0FF3007B0BDE8F08FC82002F087
:104540001BFD00208DF81000F34A1268D17BF24A5F
:104550005268107804AB0122FDF728F910B14FF032
:10456000FF30E8E7EC4A12685179EB4A526810785C
:1045700004AB0122FDF71AF910B14FF0FF30DAE772
:10458000E54A1268917CE44A5268107804AB012233
:10459000FDF70CF910B14FF0FF30CCE7DE4A12689E
:1045A000D17DDD4A5268107804AB0122FDF7FEF898
:1045B00010B14FF0FF30BEE7D74A12681179D64AE2
:1045C0005268107804AB0122FDF7F0F810B14FF0FB
:1045D000FF30B0E70C208DF81000CF4A1268117937
:1045E000CD4A5268107804AB0122FDF7DFF810B114
:1045F0004FF0FF309FE70F2002F0BEFCC648806AF4
:10460000407A8DF81000C44A12689178C24A526804
:10461000107804AB0122FDF7C9F810B14FF0FF305C
:1046200089E7BD48806A007A8DF81000BA4A12689E
:104630005178B94A5268107804AB0122FDF7B6F8F8
:1046400010B14FF0FF3076E7B9F1000F07D0B24854
:10465000806A807A40F0E0008DF8100004E0AE48F7
:10466000806A807A8DF81000AB4A12689179AA4A64
:104670005268107804AB0122FDF798F810B14FF0A2
:10468000FF3058E7B9F1000F07D0A348806AC07A1D
:1046900040F0E0008DF8100003E0A048C07A8DF8EB
:1046A00010009D4A1268D1799B4A5268107804AB79
:1046B0000122FDF77BF810B14FF0FF303BE7B9F175
:1046C000000F02D0C82002F057FC40208DF81000E7
:1046D000914A12681179904A5268107804AB01220D
:1046E000FDF764F810B14FF0FF3024E778208DF823
:1046F0001000894A12685179874A5268107804ABD1
:104700000122FDF753F810B14FF0FF3013E7834952
:10471000888902F031FC00208DF810007E4A126872
:1047200051797D4A5268107804AB0122FDF73EF8BA
:1047300010B14FF0FF30FEE6774A1268917A764A60
:104740005268107804AB0222FCF78AFF10B14FF0D8
:10475000FF30F0E69DF811009DF8101040EA012BA3
:104760000C209BFBF0F0C6B20020A86068602860B7
:10477000A06060602060824665E0674A1268D17A76
:10478000654A5268107804AB0C22FCF769FF10B13F
:104790004FF0FF30CFE69DF811009DF8101040EA71
:1047A000012000B2ADF808009DF813009DF812102A
:1047B00040EA012000B2ADF80A009DF815009DF80E
:1047C000141040EA012000B2ADF80C00BDF9081049
:1047D000206808442060BDF90A10606808446060E1
:1047E000BDF90C10A0680844A0609DF817009DF862
:1047F000161040EA012000B2ADF800009DF8190043
:104800009DF8181040EA012000B2ADF802009DF8B2
:104810001B009DF81A1040EA012000B2ADF8040018
:10482000BDF90010286808442860BDF902106868C6
:1048300008446860BDF90410A8680844A8600AF13B
:10484000010000F0FF0AB24597DB3448D0F800C001
:104850002868C117090441EA104107046246002391
:104860003846FBF709FD32460023CDE90201FBF78C
:1048700003FD28602948D0F800C06868C117090402
:1048800041EA10410704624600233846FBF7F4FC76
:1048900032460023CDE90201FBF7EEFC68601F48B9
:1048A000D0F800C0A868C117090441EA1041070404
:1048B000624600233846FBF7DFFC32460023CDE991
:1048C0000201FBF7D9FCA8601448D0F804C02168A5
:1048D000C817000440EA11480F0462460023384616
:1048E0004146FBF7C9FC32460023CDE90201FBF744
:1048F000C3FC20600948D0F804C06068C1170904EF
:1049000041EA10410704624600233846FBF7B4FC35
:104910003246002304E00000BC00002008870008A5
:10492000CDE90201FBF7A8FC60601148D0F804C093
:10493000A068C117090441EA104107046246002338
:104940003846FBF799FC32460023CDE90201FBF71C
:1049500093FCA060A068002804DDA068A0F580306A
:10496000A06003E0A06800F58030A0600020E2E5D0
:10497000088700081CB501210846FDF721F902202F
:104980008DF8050001208DF8070002208DF8040045
:1049900000208DF806004FF40070009069460A4828
:1049A000FCF7E0FA4FF48060009069460648FCF797
:1049B000D9FA072209210448FCF7CCFB07220A2177
:1049C0000148FCF7C7FB1CBD00000240F0B52DED0F
:1049D000048B81B006460F4600253F494968087898
:1049E0006B4603220D21FCF73BFE20B1072001B0EE
:1049F000BDEC048BF0BD9DF8000000F01F008DF8A9
:104A000000009DF8010000F01F008DF801009DF8E6
:104A1000020000F01F008DF80200002457E056F855
:104A2000241057F82420881A002801DB014600E0F2
:104A3000414200EE101AB8EEC00ADFED280A80EEFF
:104A4000208A1DF8040070B3254890ED000AB8EEE6
:104A5000400ADFED240A80EE801AB0EE419A05E0AC
:104A60009FED210A29EE000AB0EE409A1DF80400DD
:104A7000401EC0B20DF804000028F1D188EE090AEA
:104A8000F7EE000A70EE608A00BFB0EEE80A144844
:104A9000D0ED060AB4EEE00AF1EE10FA16DD0120C0
:104AA000A040054312E0FFE70D4890ED040AB4EE84
:104AB000C80AF1EE10FA06DC90ED050AB4EEC80A59
:104AC000F1EE10FA02D20120A0400543641C032C31
:104AD000A5DB28468BE70000BC00002000008047D3
:104AE0000887000800B04C4554E3853F002001E0F2
:104AF000411CC8B22328FBDB7047002001E0411CA9
:104B0000C8B21E28FBDB704770B50446002526E0BE
:104B100004F0800028B14FF480711248FCF748FB84
:104B200004E04FF480710F48FCF740FBFFF7DEFF15
:104B300080210C48FCF73CFBFFF7D8FF8021094897
:104B4000FCF734FB072D04D14FF480710548FCF7C6
:104B50002FFB6006040EFFF7C9FF681CC5B2082DC5
:104B6000D6DB70BD0010024010B580210B48FCF769
:104B70001FFB4FF480710948FCF71AFBFFF7B6FFE3
:104B80004FF480710548FCF711FBFFF7AFFF802160
:104B90000248FCF70BFBFFF7A9FF10BD0010024015
:104BA00010B580210848FCF703FB80210648FCF77C
:104BB000FDFA4FF480710448FCF7F8FA4FF4807165
:104BC0000148FCF7F5FA10BD0010024010B54FF493
:104BD00080710948FCF7ECFAFFF788FF802106484E
:104BE000FCF7E6FAFFF782FF80210348FCF7DEFAC4
:104BF000FFF77CFF10BD00000010024010B5044616
:104C0000204600F00FF80346E01C00F00BF843EAE2
:104C1000C00083B2A01D00F005F843EA801083B203
:104C2000184610BD014691F90020002A01DD002040
:104C30001EE091F90020002A01DA042018E091F921
:104C40000120002A01DD012012E091F90120002A53
:104C500001DA05200CE091F90220002A01DD022092
:104C600006E091F90220002A01DA062000E0072080
:104C7000704700001CB501210846FCF7A1FF402049
:104C8000009000208DF805008DF8070001208DF8B8
:104C9000040000208DF8060069460248FCF762F91E
:104CA0001CBD0000000002401CB5FCF7ADF8074831
:104CB000012100234A02CDE9001005A1084802F0B5
:104CC000DDFE02F0C5FA00BFFEE700009C000020F8
:104CD0004170705461736B437265617465000000CC
:104CE0001D0D00087047000070B50446002624F032
:104CF0000104184890F8240008B1002070BD154840
:104D0000807A10B94FF0FF30F8E71248057C807ABE
:104D10002040104908740846007CA04202D04FF0A1
:104D2000FF3600E0002614B90A48007D18B10120C2
:104D300001F0F6FE02E0002001F0F2FE3CB100F0CE
:104D4000ABFC20B1034805744FF0FF30D6E7304686
:104D5000D4E70000BC00002070B52DED0C8B8EB0A8
:104D600004460D461646B7EE000AF0EE409A9FED57
:104D70007C0AB0EE408A9FED7A0AF0EE408A9FED01
:104D8000780AB0EE409A07A808A90DAB03AACDE9AE
:104D9000001009A90BA8FEF7A7FE20B101200EB054
:104DA000BDEC0C8B70BDBDF8200000F480700028B5
:104DB0007ED09DED030AB8EEC00ADFED6A0A80EEF0
:104DC000201AF0EE419A9DED040AB8EEC00ADFED1C
:104DD000650A80EE201AB0EE418A9DED050AB8EE14
:104DE000C00ADFED600A80EE201AF0EE418A9DEDE8
:104DF000060AB8EEC00ADFED5B0A80EE201AB0EEBC
:104E0000419AB8EE000A28EE000A20EE090AF0EEF8
:104E1000000A69EEA00A00EEA80A10EE101A084671
:104E2000FBF73AFC41EC1C0BB0EE4C0AF0EE6C0ABE
:104E3000FDF72EFDB0EE40BAF0EE60BA9FED4A0BE2
:104E400053EC102B51EC1B0BFBF71FFB41EC1A0B27
:104E5000FBF735FC2060B8EE000A28EE000A20EED1
:104E6000080AF0EE000A68EEA00A00EEE80AF7EE83
:104E7000000A30EE200A10EE101A0846FBF70CFC70
:104E800041EC1C0BB0EE000A28EE800A20EE090A65
:104E9000F0EE000A69EEA00A00EE880A10EE101A81
:104EA0000846FBF7F9FB41EC1D0BB0EE4C1A00E095
:104EB00052E0F0EE6C1AB0EE4D0AF0EE6D0AFEF71D
:104EC00003F8B0EE40BAF0EE60BA9FED270B53EC5A
:104ED000102B51EC1B0BFBF7D8FA41EC1A0BFBF72C
:104EE000EEFB286029EEA90A08EE080A08EEE80A97
:104EF00009EE490A10EE101A0846FBF7CDFB41EC0B
:104F00001C0B28EE280A09EE890AF0EE000A20EEB2
:104F1000200A10EE101A0846FBF7BEFB41EC1D0BF1
:104F2000B0EE4C1AF0EE6C1AB0EE4D0AF0EE6D0ACF
:104F3000FDF7CAFFB0EE40BAF0EE60BA9FED0A0B83
:104F400053EC102B51EC1B0BFBF79FFA41EC1A0BA7
:104F5000FBF7B5FB306001E0022020E700201EE7F0
:104F6000000000000000804E6666666666A64C4043
:104F700070B50024FCF77AF900F02AF9002840D136
:104F8000782000F035FFC4B20CB1012070BD78204C
:104F9000FFF7AAFEC4B20CB10220F7E7642000F0CC
:104FA000D9FEC4B20CB10320F0E7FEF791FDC4B204
:104FB0000CB10420EAE71448FFF720FE0546FEF78F
:104FC000E1FFC4B20CB10520E0E740F27310FEF738
:104FD00027FCC4B20CB10620D8E76420FEF702FF1C
:104FE000C4B20CB10720D1E701F04CFD04460CB16E
:104FF0000820CBE7012000F0A9FDC4B20CB10920C4
:10500000C4E70020C2E70000E80000200146114884
:10501000407A30B1012807D0022808D003280CD1EB
:1050200008E0022008700BE00420087008E0082067
:10503000087005E01020087002E04FF0FF30704764
:1050400000BF0448C07C18B108784006000E087004
:105050000020F4E7BC00002001461348407A30B13C
:10506000012808D002280AD0032810D10BE04FF401
:10507000804008800EE041F69C7008800AE04FF402
:105080008050088006E04FF40060088002E04FF096
:10509000FF30704700BF0448C07C10B10888401042
:1050A00008800020F5E70000BC000020014602480F
:1050B000007C087000207047BC00002001460F48AB
:1050C000007A30B1012807D0022809D003280FD177
:1050D0000AE0FA2008800EE04FF4FA7008800AE037
:1050E0004FF47A70088006E04FF4FA60088002E01E
:1050F0000020088000BF00BF00207047BC000020D7
:1051000001461248007A30B1012809D002280CD09B
:10511000032814D10EE09FED0E0A81ED000A11E084
:105120009FED0C0A81ED000A0CE09FED0B0A81ED6A
:10513000000A07E09FED090A81ED000A02E04FF046
:10514000FF30704700BF0020FBE70000BC000020DC
:10515000000003430000834233330342333383416F
:1051600001461248C07A082817D2DFE800F0170479
:10517000070A0D101318BC20088013E06220088075
:1051800010E02A2008800DE0142008800AE00A20A0
:10519000088007E00520088004E000BF00BF002071
:1051A000088000BF00BF002070470000BC00002046
:1051B0000146064890F8240010B14FF0FF307047C8
:1051C0000248C08908800020F9E70000BC000020E8
:1051D0001CB580208DF80000654A1268917C644AF5
:1051E000526810786B460122FCF7E0FA10B14FF0DC
:1051F000FF301CBD642001F0BFFE00208DF80000D0
:105200005B4A1268917C5A4A526810786B460122B8
:10521000FCF7CCFA10B14FF0FF30EAE7544A1268BD
:10522000917D534A526810786B460622FCF718FAB3
:1052300010B14FF0FF30DCE79DF80500C007400FCC
:105240009DF8031001F0010140EA41009DF80110B2
:1052500001F0010140EA010494B1012C03D10121C4
:105260004348C17431E0022C03D100214048C1748D
:105270002BE021463FA0FDF7E3FA4FF0FF30B8E7FF
:105280003B4A1268D1783A4A526810786B4601223C
:10529000FCF7E6F910B14FF0FF30AAE79DF80000E7
:1052A00000F00F042CB93D48FDF7CAFA4FF0FF306B
:1052B0009FE7042C06D13AA0FDF7C2FA01212C4841
:1052C000C17402E000212A48C174FF21284881727C
:1052D000FF2027490872FF2125484172C1724FF60D
:1052E000FF71C181FF21017481740121017380F874
:1052F0002210002180F823104175017516300160DD
:1053000041608160163880F8241080F82510C1842F
:105310004FF4FA6000F062FC10B14FF0FF3068E724
:10532000022000F02BFB10B14FF0FF3061E72A2084
:1053300000F0CEFC10B14FF0FF305AE7322000F001
:1053400009FD10B14FF0FF3053E70020FFF7CCFC10
:1053500010B14FF0FF304CE7002000F051FB10B1CE
:105360004FF0FF3045E7002000F042FD002040E70D
:10537000BC000020556E737570706F727465642088
:10538000736F6674776172652070726F6475637491
:10539000207265762025642E0A000000189400080B
:1053A00048616C662073656E736974697669747997
:1053B000207061727420666F756E642E0A000000A2
:1053C0002DE9F04385B005460E469046994629489A
:1053D00090F8250020B14FF0FF3005B0BDE8F08314
:1053E00016B94FF0FF30F8E7002423E0281B1028FF
:1053F00001DD102000E0281B87B232193946204613
:1054000000F05EFD10B14FF0FF30E6E701AA39462B
:10541000204600F001F910B14FF0FF30DDE7301900
:105420003A4601A9FAF77DFF10B16FF00100D4E709
:10543000E01984B2AC42D9DB4FEA28208DF8000095
:1054400008F0FF008DF801000A4A1268917E094AAF
:10545000526810786B460222FCF7A8F910B14FF0A1
:10546000FF30BAE70121034880F82510A0F8269004
:105470000020B2E7BC00002038B50446282C02DD2D
:105480004FF0FF3038BDDCB9002000F0EBFB00200E
:105490008DF8000007208DF801002E4A1268917CDB
:1054A0002C4A526810786B460222FCF77FF910B143
:1054B0004FF0FF30E6E70021264801750020E1E7C4
:1054C000012000F0CFFB20208DF80000012C06D138
:1054D00000208DF80100052000F0FAFB17E0052CF4
:1054E00006DC01208DF80100052000F0F1FB0EE044
:1054F000142C06DC02208DF801000A2000F0E8FBE5
:1055000005E003208DF80100142000F0E1FB9DF878
:105510000100072101EB8010C0B28DF801000D4A97
:105520001268917C0B4A526810786B460222FCF795
:105530003DF910B14FF0FF30A4E708210548817212
:1055400000210173012101750020FFF7CDFB002030
:1055500098E70000BC000020F8B504460F46164648
:105560002C4890F8240010B94FF0FF30F8BD2948BE
:10557000807A10B94FF0FF30F8E7264A1268917A26
:10558000244A526810786B460222FCF769F810B181
:105590004FF0FF30EAE79DF801009DF8001040EA67
:1055A0000125A54203DA00203070401EDEE71948CD
:1055B00040684088B5EB600F17DD164A1268517CD1
:1055C000144A526810786B460122FCF749F810B172
:1055D0004FF0FF30CAE79DF8000000F0100020B146
:1055E00000F05AF86FF00100C0E7E2B2094B1B6807
:1055F000D97A084B5B6818783B46FCF731F810B154
:105600004FF0FF30B2E795FBF4F0401E3070002001
:10561000ACE70000BC000020F8B504460D46164675
:1056200016B94FF0FF30F8BD1A48807A10B94FF024
:10563000FF30F8E720128DF80000E0B28DF801008D
:105640009DF801002844134949684989884202DDD0
:105650004FF0FF30E7E70F4A1268117E0D4A52689B
:1056600010786B460222FCF7A1F810B14FF0FF3022
:10567000D9E7EAB2074B1B68597D064B5B6818787F
:105680003346FBF7EDFF10B14FF0FF30CBE70020C2
:10569000C9E70000BC00002008B57048807A10B946
:1056A0004FF0FF3008BD002000906C4A1268D17B9B
:1056B0006A4A526810786B460122FCF777F810B1FD
:1056C0004FF0FF30EEE7654A12685179634A52683D
:1056D00010786B460122FCF769F810B14FF0FF30EB
:1056E000E0E75E4A126811795C4A526810786B46AE
:1056F0000122FCF75BF810B14FF0FF30D2E75748BA
:1057000090F82400002853D00C200090534A1268CF
:105710001179524A526810786B460122FCF746F81C
:1057200010B14FF0FF30BDE7322001F025FCC02062
:1057300000904A48807A00F0010020B19DF80000F6
:1057400040F020000090454A12681179434A52689F
:1057500010786B460122FCF729F810B14FF0FF30AA
:10576000A0E73E48407C10B10220009001E00020FC
:1057700000903A4A1268D17B384A526810786B46DA
:105780000122FCF713F810B14FF0FF308AE7002038
:105790000090324A12685179304A526810786B464C
:1057A0000122FCF703F8002855D04FF0FF3079E7CD
:1057B00004200090294A12681179284A526810780A
:1057C0006B460122FBF7F2FF10B14FF0FF3069E7A3
:1057D0002248807C20B92148807A00F0010010B96D
:1057E0004020009001E0602000901C4A126811796E
:1057F0001A4A526810786B460122FBF7D7FF10B1A6
:105800004FF0FF304EE7322001F0B6FB1348407CEA
:1058100010B10120009001E0002000900F4A1268B2
:10582000D17B0E4A526810786B460122FBF7BEFF0F
:1058300010B14FF0FF3035E7084A12685179074A36
:1058400052681078054B10330122FBF7AFFF10B1FF
:105850004FF0FF3026E7002024E70000BC000020C6
:105860002DE9F04F8DB083460F4602200C90424840
:1058700090F8240020B1002000F068F9012600E033
:10588000002603A8FFF71AFC05A8FFF7BFFB01A835
:10589000FFF766FC02A8FFF78BFC374890F80AA0D8
:1058A00004A8FFF703FC002407E00022394658460D
:1058B000FEF728FE00B902E0641C022CF5DB00BFF5
:1058C000022C01D1002528E0002407E0012206A9CE
:1058D00009A8FEF717FE00B902E0641C022CF5DBF4
:1058E00000BF022C01D1002517E006A93846FDF7BC
:1058F000DBFE00F0FF0809A95846FFF767F800F043
:10590000FF090025B9F1000F01D145F00105B8F1FB
:10591000000F01D145F0020500BFFF2016490872B3
:10592000FF2115484172C1724FF6FF71C181FF21FD
:105930008172017401210173BDF80C0000F04EF971
:105940009DF8140000F01AF8BDF8040000F0C0F94A
:10595000BDF8080000F0FEF9504600F049FA9DF845
:105960001000FFF7C1F916B1012000F0EFF828464A
:105970000DB0BDE8F08F0000BC00002038B5044633
:105980001E48807A10B94FF0FF3038BD022C06D087
:10599000042C07D0082C08D0102C0CD108E00020D3
:1059A00000900BE00820009008E01020009005E037
:1059B0001820009002E04FF0FF30E6E700BF0F48EC
:1059C000407A9DF80010B0EBE10F01D10020DCE738
:1059D0000A4A1268D179094A526810786B46012246
:1059E000FBF7E4FE10B14FF0FF30CEE79DF800006A
:1059F000C110024841720020C7E70000BC0000202F
:105A000038B504465048807CA04201D1002038BD02
:105A1000002C46D04C4A126811794B4A52681078D3
:105A20006B460122FBF71CFE10B14FF0FF30EEE792
:105A30009DF8000020F020000090434A1268117980
:105A4000414A526810786B460122FBF7AFFE10B155
:105A50004FF0FF30DBE7032001F08EFA02200090C8
:105A6000394890F8220020B19DF8000040F08000F5
:105A70000090354890F8230020B19DF8000040F0D8
:105A800030000090304A1268117D2F4A5268107819
:105A90006B460122FBF78AFE002851D04FF0FF3001
:105AA000B5E7294A12681179274A526810786B467F
:105AB0000122FBF7D5FD10B14FF0FF30A7E72248D8
:105AC000807A00F0010028B19DF8000040F020002D
:105AD000009004E09DF8000020F0200000901A4A99
