:020000040800F2
:10000000200400209D010008430600083B0600086C
:100010003F060008AD04000835100008000000008D
:100020000000000000000000000000004D08000873
:10003000B104000800000000D10600083D090008D6
:10004000B7010008B7010008B7010008B7010008B0
:10005000B7010008B7010008B7010008B7010008A0
:10006000B7010008B7010008B7010008B701000890
:10007000B7010008B7010008B7010008B701000880
:10008000B7010008B70100088D020008B701000899
:10009000B7010008B7010008B7010008B701000860
:1000A000B7010008B7010008B7010008B701000850
:1000B000B7010008B7010008B7010008B701000840
:1000C000B7010008B7010008B7010008B701000830
:1000D000B7010008B7010008B7010008B701000820
:1000E000B7010008B7010008B7010008B701000810
:1000F000B7010008B7010008B7010008B701000800
:10010000B7010008B70100087D0B0008B70100081F
:10011000B7010008B7010008B7010008B7010008DF
:10012000B7010008B7010008B7010008B7010008CF
:10013000B7010008B7010008B7010008B7010008BF
:10014000B7010008B7010008B7010008B7010008AF
:10015000B7010008B7010008B7010008B70100089F
:10016000B7010008B7010008B7010008B70100088F
:10017000B7010008B7010008B7010008B70100087F
:10018000B7010008B7010008DFF80CD000F018F83C
:1001900000480047711100082004002006488047ED
:1001A00006480047FEE7FEE7FEE7FEE7FEE7FEE75C
:1001B000FEE7FEE7FEE7FEE74109000889010008C7
:1001C000064C074D06E0E06840F0010394E80700A4
:1001D00098471034AC42F6D3FFF7DAFFE412000878
:1001E0000413000800220A12D3430360704721B1B0
:1001F000826842F00102826003E0826822F001021C
:10020000826070470021084A1168084A1140D0E90D
:1002100000231A4383681A43C3681A431143044AEC
:10022000C2F804137047000004230140E030FCFFD3
:10023000002001401CB50121084600F04BFA1020B7
:10024000009003208DF8040000208DF80700694617
:10025000014800F087F91CBD000002400146C86C4F
:1002600080B2704770B502460020002300240B12B4
:10027000556801268E4005EA060415681D4015B133
:100280000CB1012000E0002070BD000010B540F26C
:1002900005210848FFF7E6FF012804D10548FFF7CC
:1002A000DDFF0549088040F205210248FFF79AFF6B
:1002B00010BD0000002001401A00002010B50B46C0
:1002C0000021D9B2012404FA01F11AB144680C43A7
:1002D000446002E044688C43446010BD30B502467F
:1002E000002000235068104C20400D790C6844EA2F
:1002F00005242043506090680C4C2040D1E9035401
:100300002C438D682C434D7944EA4504204390608A
:10031000D06A20F470000C7D641EE4B2234340EAEE
:100320000350D06230BD0000FFFEFFFCFDF7FFC0B0
:1003300000B58BB00121080200F0ECF9002001901B
:100340004FF480300290002003904FF470600490CE
:1003500001A8FFF757FF05A800F09EF800200590C0
:100360008DF8180001208DF81900002007900890E2
:10037000099001208DF8280005A90C48FFF7AEFF71
:10038000032301220421094800F025F8012240F24C
:1003900005210648FFF792FF01210448FFF727FFD8
:1003A000024800F074F80BB000BD000000200140CE
:1003B00008B54FF4C06000F081F912208DF80000FC
:1003C00001208DF801008DF802008DF803006846C9
:1003D00000F038F908BDF0B504460D4600200021B4
:1003E000092D11DDE068A5F10A0606EB4607072690
:1003F00006FA07F18843A5F10A0606EB460603FA5A
:1004000006F10843E0600CE0206905EB450707268C
:1004100006FA07F1884305EB450603FA06F108439F
:100420002061072A0FDA606B561E06EB86071F262F
:1004300006FA07F18843561E06EB860605FA06F112
:100440000843606322E00D2A0FDA206BD61F06EB0B
:1004500086071F2606FA07F18843D61F06EB860695
:1004600005FA06F10843206310E0E06AA2F10D06E8
:1004700006EB86071F2606FA07F18843A2F10D0650
:1004800006EB860605FA06F10843E062F0BD8168D6
:1004900041F080418160704700210160017141712C
:1004A0008160C160016101210175704700BFFEE7F5
:1004B0007047000000B589B00121084600F01AF924
:1004C0000121084600F006F901220021244800F02D
:1004D00091F801221146224800F08CF80320049084
:1004E00002208DF8140003208DF8150000208DF8EF
:1004F00016008DF8170004A9194800F033F806A873
:1005000000F0C8FC0020ADF818004FF47A70079096
:100510000020ADF82000ADF81A0006A94FF0804089
:1005200000F076FC00231A4603214FF0804000F0D3
:1005300055FB01A800F0BBFB0F20ADF80C0001A992
:100540004FF0804000F07CFB00214FF0804000F035
:1005500030FC0121880700F035FB09B000BD000028
:1005600000000240F0B50A4600210023002400BF2D
:100570003DE0012505FA01F3156805EA03049C42F4
:1005800034D105684F000326BE40B5430560157998
:100590004E00B5400668354305601579012D02D03F
:1005A0001579022D16D185684F000326BE40B5434C
:1005B000856055794E00B54086683543856045684D
:1005C00001268E40B5434560456896798E40B6B2A7
:1005D00035434560C5684F000326BE40B543C5603E
:1005E000D5794E00B540C6683543C560491C102911
:1005F000BFD3F0BDF0B5002300244D07ED0E02FA85
:1006000005F3CE1000F1200555F826504E07F70EE1
:100610000F26BE40B543CF1000F1200646F8275004
:10062000CE1000F1200555F8265045EA0304CE10FF
:1006300000F1200545F82640F0BD00BFFEE700BFF1
:10064000FEE7704770B5002100230F22C4781CB369
:10065000174C246804F4E064C4F5E064C4F3072193
:10066000C1F10404E3B20A4144789C40E1B28478C9
:10067000144021430C07210E0E4C05786155047877
:1006800004F01F050124AC4005786D11AD0005F1A3
:10069000E025C5F8004109E0047804F01F050124B5
:1006A000AC40054D0678761145F8264070BD000037
:1006B0000CED00E000E400E080E100E002490143CD
:1006C000024A1160704700000000FA050CED00E0DE
:1006D0007047000029B1064A12680243044B1A60B1
:1006E00004E0034A12688243014B1A60704700001D
:1006F0003038024029B1064A12680243044B1A609E
:1007000004E0034A12688243014B1A6070470000FC
:100710004038024029B1064A12680243044B1A606D
:1007200004E0034A12688243014B1A6070470000DC
:1007300044380240F0B500210022002402250026A2
:100740000223324F3F6807F00C0121B1042905D084
:10075000082937D105E02E4F076036E02D4F07609E
:1007600033E02A4F3F1F3F68C7F38056274F3F1F94
:100770003F6807F03F036EB1264FB7FBF3F7DFF892
:100780008CC0ACF1040CDCF800C0CCF3881C07FB77
:100790000CF40CE01E4FB7FBF3F7DFF870C0ACF1C0
:1007A000040CDCF800C0CCF3881C07FB0CF4174FDA
:1007B0003F1F3F68C7F301477F1C7D00B4FBF5F77F
:1007C000076002E0124F076000BF00BF0F4F3F6895
:1007D00007F0F0010909104F7A5C0768D7404760BD
:1007E0000A4F3F6807F4E051890A0B4F7A5C47686B
:1007F000D7408760054F3F6807F46041490B064FBB
:100800007A5C4768D740C760F0BD000008380240F6
:100810000024F40000127A000000002000200021D3
:1008200006E04FF08042526A024490B24A1CD1B2B4
:100830000529F6DB052190FBF1F1034A51800021E7
:100840004FF0804251627047100000207047000056
:100850000CB50020019000903448006840F48030CE
:100860003249086000BF3148006800F40030009051
:100870000198401C0190009818B90198B0F5A04F5C
:10088000F1D12A48006800F4003010B10120009036
:1008900001E0002000900098012846D12348403014
:1008A000006840F0805021494031086020480068CD
:1008B00040F440401E4908601C48083000681B494D
:1008C000083108600846006840F4004008600846A7
:1008D000006840F4A05008601648091F0860081F0F
:1008E000006840F08070091F086000BF0F48006872
:1008F00000F000700028F9D040F205700E49086041
:100900000A480830006820F00300084908310860F0
:100910000846006840F00200086000BF0348083045
:10092000006800F00C000828F8D10CBD0038024027
:100930000070004008544007003C0240704700002F
:1009400010B51548006840F470001349086013485A
:10095000006840F001001149086000200F4908318B
:1009600008600E4800680E4908400C4908600D48B0
:10097000091D0860081F006820F48020091F086016
:10098000002006490C310860FFF762FF4FF000605D
:1009900001498039086010BD88ED00E00038024050
:1009A000FFFFF6FE1030002410B5FFF743FCFFF701
:1009B000BFFCFFF7FDFC10BDF0B50C46154600214D
:1009C0000022068C4FF6FE773E400684018B028C97
:1009D0004FF60C7631407E1C06EA03162E43314357
:1009E0004FF6F576324044F001063243018302842B
:1009F000F0BDF0B50C461546002100220026078CFC
:100A00004FF6EF7C07EA0C070784018B028C4FF648
:100A1000FF7707EA041640F6FF4739404FF6FF77A5
:100A200007EA033739434FF6FF7707EA05273943CB
:100A30004FF65F773A4046F010073A43018302844D
:100A4000F0BDF0B50C461546002100220026078CAB
:100A50004FF6FF6C07EA0C070784818B028C4FF678
:100A6000FF7707EA04264FF60C7739404FF6FF77F9
:100A700007EA03172F4339434FF2FF573A4046F432
:100A800080773A4381830284F0BDF0B50C46154669
:100A9000002100220026078C4EF6FF7C07EA0C0797
:100AA0000784818B028C4FF6FF7707EA043640F605
:100AB000FF4739404FF6FF7707EA052739434FF6DE
:100AC000FF7707EA0337394345F6FF773A4046F4A4
:100AD00080573A4381830284F0BD000030B58BB06B
:100AE00004460D4601210802FFF704FE01210846D5
:100AF000FFF7F0FD092207211E48FFF77BFD80204C
:100B0000099002208DF8280003208DF8290000208C
:100B10008DF82A0001208DF82B0009A91548FFF750
:100B200021FDA8B2ADF818000020ADF81A00079416
:100B3000ADF8200006A9104800F06AF96020ADF871
:100B400004000120ADF806000020ADF8100001A956
:100B5000094800F0E5F80821074800F01FF90121D5
:100B6000054800F01DF80121034800F02BF80BB0F8
:100B700030BD0000000002400020004010B50121FF
:100B8000054800F04CF830B10121034800F017F897
:100B900001200249087010BD000C00401800002020
:100BA00021B1028842F08002028004E002884FF600
:100BB0007F731A4002807047CA4302827047CA435B
:100BC0000282704721B1028842F00102028004E0F3
:100BD00002884FF6FE731A4002807047F0B50C464B
:100BE00015461E460021002200230189028B038C3A
:100BF0004FF6F877394021434FF6FC473A4040F230
:100C000001173A434FF6DD773B404FF6FF7707EA8F
:100C100006172F433B43018102830384F0BD30B5A7
:100C20000246002000230024158A05EA0103958965
:100C300005EA010413B10CB1012000E0002030BD31
:100C400070B505460C46208850B92389A288618872
:100C50002846FFF7B1FEE188284600F0ACF825E011
:100C6000208804280AD12389A28861882846FFF7B2
:100C7000C0FEE188284600F0A7F817E02088082881
:100C80000AD12389A28861882846FFF7DAFEE18825
:100C9000284600F0A6F809E02389A2886188284642
:100CA000FFF7F3FEE188284600F0A4F870BD0021AC
:100CB00001804180012181800021C1800181704734
:100CC0001AB183890B43838102E083898B4383813B
:100CD000704700000EB501210820FFF70BFD42F21E
:100CE000CF00ADF800000020ADF8020063200190B5
:100CF0000020ADF808006946084800F089F8012195
:100D00000648FFF759FF012211460448FFF7D8FFB4
:100D100001210248FFF756FF0EBD0000000C004005
:100D200070B5002400220023058C4FF6FE76354076
:100D30000584028C8388048B4FF68F752C40B51E7A
:100D40002C400D882C43751E2A408D892A434D88DE
:100D50002A43104DA84202D00F4DA84213D14FF69E
:100D6000F7752A40CD892A434FF6FB752A408D88B6
:100D70002A434FF6FF652B404FF6FF552B400D8A57
:100D80002B434D8A2B43838004838D684563028403
:100D900070BD000000000140000401400A4600212F
:100DA000018B4FF6F773194011430183704741637C
:100DB000704741627047028B4FF6F3731A4002830B
:100DC000028B0A4302837047028B4FF2FF331A40B3
:100DD0000283028B4FF6FF7303EA01231A43028357
:100DE0007047828B4FF6F3731A408283828B0A43DB
:100DF00082837047828B4FF2FF331A408283828B4B
:100E00004FF6FF7303EA01231A4382837047000001
:100E100000220288184B98420ED0184B98420BD0F3
:100E2000B0F1804F08D0164B984205D0154B984230
:100E300002D0154B984204D14FF68F731A404B885D
:100E40001A43124B984207D0114B984204D04FF6E8
:100E5000FF431A400B891A4302804B68C3620B8818
:100E60000385054B984202D0044B984201D18B7AFE
:100E70000386012383827047000001400004014083
:100E80000004004000080040000C0040001000403A
:100E9000001400404FF0FF314160002101800181CA
:100EA00041808172704710B500F003F8FFF712FF20
:100EB00010BD08B54FF4E060FFF700FC32208DF85C
:100EC000000000208DF8010003208DF802000120B1
:100ED0008DF803006846FFF7B5FB08BD21B1828994
:100EE00042F40052828104E082894DF6FF731A4079
:100EF0008281704702460020B1F5007F00D100BF1B
:100F000013880B400BB1012000E000207047F0B5C2
:100F10000346002400260025002040F66A17B94247
:100F200000D100BF1846C1F3421401F01F0601278B
:100F300007FA06F5012C01D10C3004E0022C01D196
:100F4000103000E014301AB107682F43076002E048
:100F50000768AF430760F0BD2DE9FF4705460E4621
:100F60000024A14600BFA046B08900B100BF2C8A72
:100F700024F44054F08804432C82AC8941F20C6084
:100F80008443B08831890843718908430443AC81A4
:100F9000AC8A24F44074B0890443AC826846FFF7FD
:100FA000C9FB2048854202D01F48854202D1DDF8A6
:100FB0000C9001E0DDF80890A88900F4004040B1F1
:100FC00009EBC90000EB091031684900B0FBF1F7EB
:100FD00007E009EBC90000EB091031688900B0FB9C
:100FE000F1F76420B7FBF0F004012009642101FB54
:100FF0001078A88900F4004040B1322000EBC8000E
:10100000B0FBF1F000F00700044308E0322000EBF1
:1010100008106421B0FBF1F000F00F0004432C81B4
:10102000BDE8FF870010014000140140C1F3080231
:101030008280704700BFFEE770B504460D46294622
:101040002046FFF7F3FF00BF80212046FFF752FF45
:101050000028F9D070BD2DE9F04105460C46260A5E
:10106000E7B231462846FFF7E1FF00BF802128465E
:10107000FFF740FF0028F9D039462846FFF7D6FF92
:1010800000BF80212846FFF735FF0028F9D0BDE8D2
:10109000F08102E008C8121F08C1002AFAD1704787
:1010A0007047002001E001C1121F002AFBD17047E8
:1010B00010B500F043F800F0E7F8FFF775FC0B21DE
:1010C00040F2F310FFF70AFDFFF7EDFE00F001F824
:1010D00010BD10B5FFF7EEF910BD00E0401E00286E
:1010E000FCD170471CB501210846FFF7F3FA022036
:1010F0008DF8050001208DF8070002208DF804000E
:1011000000208DF806004FF40070009069460A48F0
:10111000FFF728FA4FF48060009069460648FFF711
:1011200021FA072209210448FFF764FA07220A215D
:101130000148FFF75FFA1CBD000002401CB5012109
:101140000846FFF7C7FA4020009000208DF8050000
:101150008DF8070001208DF8040000208DF80600AE
:1011600069460248FFF7FEF91CBD0000000002407E
:1011700000240125FFF79CFF65E04FF6FF70FFF7A5
:10118000ACFF15B1601C84B201E0601E84B2B4F5FE
:10119000FA7F00DB002504B90125FF212A48FFF76B
:1011A0004BFF01212848FFF747FF21462648FFF75C
:1011B00052FFAA212448FFF73FFF2448008800EE91
:1011C000100AB8EE400ADFED220A60EE200A9FED19
:1011D000211A80EE810ADFED200A20EE200ABCEE03
:1011E000C00A10EE100A1D498880FF211648FFF73B
:1011F00023FF02211448FFF71FFF18488188124877
:10120000FFF729FFAA211048FFF716FF14480078BE
:10121000A8B1002012490870FFF700FBFF210A481F
:10122000FFF70AFF03210848FFF706FF0B48418834
:101230000548FFF710FFAA210348FFF7FDFE2146EE
:101240000848FFF7B4FD98E7001001401A0000209D
:101250000000484300008045333353401000002015
:10126000180000200020004008B525208DF800005F
:1012700003208DF801008DF8020001208DF8030095
:101280006846FFF7DFF908BD1FB5FFF72BFF012107
:101290000846FFF71FFA01211020FFF73BFA4FF431
:1012A000E13000900020ADF80400ADF80600ADF884
:1012B0000800ADF80C000C20ADF80A00694608489B
:1012C000FFF74AFEFFF7D0FF012240F22551044804
:1012D000FFF71DFE01210248FFF700FE1FBD0000C1
:1012E0000010014004130008000000201C00000052
:1012F00092100008201300081C00002004040000C5
:10130000A21000080000000001020304010203040F
:1013100006070809000000000000000000000000AF
:040000050800018965
:00000001FF
